{"abi":[{"type":"function","name":"proof","inputs":[],"outputs":[{"name":"","type":"tuple","internalType":"struct Proof","components":[{"name":"seal","type":"tuple","internalType":"struct Seal","components":[{"name":"verifierSelector","type":"bytes4","internalType":"bytes4"},{"name":"seal","type":"bytes32[8]","internalType":"bytes32[8]"},{"name":"mode","type":"uint8","internalType":"enum ProofMode"}]},{"name":"callGuestId","type":"bytes32","internalType":"bytes32"},{"name":"length","type":"uint256","internalType":"uint256"},{"name":"callAssumptions","type":"tuple","internalType":"struct CallAssumptions","components":[{"name":"proverContractAddress","type":"address","internalType":"address"},{"name":"functionSelector","type":"bytes4","internalType":"bytes4"},{"name":"settleChainId","type":"uint256","internalType":"uint256"},{"name":"settleBlockNumber","type":"uint256","internalType":"uint256"},{"name":"settleBlockHash","type":"bytes32","internalType":"bytes32"}]}]}],"stateMutability":"pure"},{"type":"function","name":"prove","inputs":[{"name":"emailContent","type":"string","internalType":"string"},{"name":"emailHeaders","type":"string","internalType":"string"}],"outputs":[{"name":"","type":"tuple","internalType":"struct Proof","components":[{"name":"seal","type":"tuple","internalType":"struct Seal","components":[{"name":"verifierSelector","type":"bytes4","internalType":"bytes4"},{"name":"seal","type":"bytes32[8]","internalType":"bytes32[8]"},{"name":"mode","type":"uint8","internalType":"enum ProofMode"}]},{"name":"callGuestId","type":"bytes32","internalType":"bytes32"},{"name":"length","type":"uint256","internalType":"uint256"},{"name":"callAssumptions","type":"tuple","internalType":"struct CallAssumptions","components":[{"name":"proverContractAddress","type":"address","internalType":"address"},{"name":"functionSelector","type":"bytes4","internalType":"bytes4"},{"name":"settleChainId","type":"uint256","internalType":"uint256"},{"name":"settleBlockNumber","type":"uint256","internalType":"uint256"},{"name":"settleBlockHash","type":"bytes32","internalType":"bytes32"}]}]},{"name":"","type":"tuple","internalType":"struct BugBountySubmission","components":[{"name":"reporter","type":"address","internalType":"address"},{"name":"platform","type":"string","internalType":"string"},{"name":"severity","type":"string","internalType":"string"},{"name":"merits","type":"uint256","internalType":"uint256"},{"name":"timestamp","type":"uint256","internalType":"uint256"},{"name":"submissionId","type":"string","internalType":"string"},{"name":"verified","type":"bool","internalType":"bool"},{"name":"tokenId","type":"uint256","internalType":"uint256"}]}],"stateMutability":"view"},{"type":"function","name":"setBlock","inputs":[{"name":"blockNo","type":"uint256","internalType":"uint256"}],"outputs":[],"stateMutability":"nonpayable"},{"type":"function","name":"setChain","inputs":[{"name":"chainId","type":"uint256","internalType":"uint256"},{"name":"blockNo","type":"uint256","internalType":"uint256"}],"outputs":[],"stateMutability":"nonpayable"}],"bytecode":{"object":"0x6080604052348015600f57600080fd5b506119a58061001f6000396000f3fe608060405234801561001057600080fd5b506004361061004c5760003560e01c806387cea3ae14610051578063cb7bba6114610066578063faf924cf14610090578063ffbc5638146100a5575b600080fd5b61006461005f36600461152c565b6100b8565b005b61007961007436600461158e565b610182565b6040516100879291906117b4565b60405180910390f35b610098610949565b60405161008791906117d7565b6100646100b33660046117e6565b61095e565b6040516343e751d760e11b8152600481018290527376dc9aa45aa006a0f63942d8f9f21bd4537972a3906387cea3ae906024016020604051808303816000875af115801561010a573d6000803e3d6000fd5b505050506040513d601f19601f8201168201806040525081019061012e9190611808565b61017f5760405162461bcd60e51b815260206004820152601b60248201527f4661696c6564206368656174636f646520696e766f636174696f6e000000000060448201526064015b60405180910390fd5b50565b61018a611443565b610192611496565b6101f886868080601f0160208091040260200160405190810160405280939291908181526020018383808284376000920191909152505060408051808201909152600f81526e636f6e67726174756c6174696f6e7360881b60208201529150610a2e9050565b801561025c575061025c86868080601f016020809104026020016040519081016040528093929190818152602001838380828437600092019190915250506040805180820190915260068152651c995dd85c9960d21b60208201529150610a2e9050565b80156102c057506102c086868080601f01602080910402602001604051908101604052809392919081815260200183838082843760009201919091525050604080518082019091526006815265626f756e747960d01b60208201529150610a2e9050565b61030c5760405162461bcd60e51b815260206004820152601c60248201527f4e6f7420612076616c69642062756720626f756e747920656d61696c000000006044820152606401610176565b600061037385858080601f0160208091040260200160405190810160405280939291908181526020018383808284376000920191909152505060408051808201909152600e81526d444b494d2d5369676e617475726560901b60208201529150610b249050565b905060006103e486868080601f0160208091040260200160405190810160405280939291908181526020018383808284376000920191909152505060408051808201909152601681527541757468656e7469636174696f6e2d526573756c747360501b60208201529150610b249050565b9050600061044387878080601f0160208091040260200160405190810160405280939291908181526020018383808284376000920191909152505060408051808201909152600481526346726f6d60e01b60208201529150610b249050565b9050600083511161048f5760405162461bcd60e51b81526020600482015260166024820152754d697373696e6720444b494d207369676e617475726560501b6044820152606401610176565b6104b982604051806040016040528060088152602001677370663d7061737360c01b815250610a2e565b6104f85760405162461bcd60e51b815260206004820152601060248201526f14d4118818da1958dac819985a5b195960821b6044820152606401610176565b610527816040518060400160405280600d81526020016c6861636b65726f6e652e636f6d60981b815250610a2e565b156105b85761055d836040518060400160405280600f81526020016e643d6861636b65726f6e652e636f6d60881b815250610a2e565b6105b35760405162461bcd60e51b815260206004820152602160248201527f496e76616c696420444b494d20646f6d61696e20666f72204861636b65724f6e6044820152606560f81b6064820152608401610176565b610876565b6105e6816040518060400160405280600c81526020016b62756763726f77642e636f6d60a01b815250610a2e565b156106675761061b836040518060400160405280600e81526020016d643d62756763726f77642e636f6d60901b815250610a2e565b6105b35760405162461bcd60e51b815260206004820181905260248201527f496e76616c696420444b494d20646f6d61696e20666f722042756763726f77646044820152606401610176565b610695816040518060400160405280600c81526020016b696d6d756e6566692e636f6d60a01b815250610a2e565b15610716576106ca836040518060400160405280600e81526020016d643d696d6d756e6566692e636f6d60901b815250610a2e565b6105b35760405162461bcd60e51b815260206004820181905260248201527f496e76616c696420444b494d20646f6d61696e20666f7220496d6d756e6566696044820152606401610176565b610745816040518060400160405280600d81526020016c696e746967726974692e636f6d60981b815250610a2e565b156107d15761077b836040518060400160405280600f81526020016e643d696e746967726974692e636f6d60881b815250610a2e565b6105b35760405162461bcd60e51b815260206004820152602160248201527f496e76616c696420444b494d20646f6d61696e20666f7220496e7469677269746044820152606960f81b6064820152608401610176565b6107fc8160405180604001604052806009815260200168676d61696c2e636f6d60b81b815250610a2e565b1561082e5761077b836040518060400160405280600b81526020016a643d676d61696c2e636f6d60a81b815250610a2e565b60405162461bcd60e51b815260206004820152601b60248201527f556e737570706f7274656420706c6174666f726d20646f6d61696e00000000006044820152606401610176565b60006108828a8a610d87565b338152426080820152600160c0820152600060e082018190529091506108a6611125565b90506108b06114e6565b60408051606081018252600080825260208083018590526001838501529185528482015290516108e291859101611831565b60408051601f19818403018152918152905183820152805160a08101825230815263cb7bba6160e01b60208201524691810191909152436060820181905260808201906109319060019061185a565b4090526060830152509a909950975050505050505050565b610951611443565b610959611125565b905090565b60405160016208753960e31b0319815260048101839052602481018290527376dc9aa45aa006a0f63942d8f9f21bd4537972a39063ffbc5638906044016020604051808303816000875af11580156109ba573d6000803e3d6000fd5b505050506040513d601f19601f820116820180604052508101906109de9190611808565b610a2a5760405162461bcd60e51b815260206004820152601b60248201527f4661696c6564206368656174636f646520696e766f636174696f6e00000000006044820152606401610176565b5050565b600080610a3a8461113a565b90506000610a478461113a565b82518151919250839183911015610a65576000945050505050610b1e565b60005b81518351610a76919061185a565b8111610b1457600160005b8351811015610aeb57838181518110610a9c57610a9c61186d565b01602001516001600160f81b03191685610ab68386611883565b81518110610ac657610ac661186d565b01602001516001600160f81b03191614610ae35760009150610aeb565b600101610a81565b508015610b015760019650505050505050610b1e565b5080610b0c81611896565b915050610a68565b5060009450505050505b92915050565b6060828260005b81518351610b39919061185a565b811015610d6e57600160005b8351811015610baf57838181518110610b6057610b6061186d565b01602001516001600160f81b03191685610b7a8386611883565b81518110610b8a57610b8a61186d565b01602001516001600160f81b03191614610ba75760009150610baf565b600101610b45565b508015610d65576000835183610bc59190611883565b610bd0906001611883565b90505b845181108015610c355750848181518110610bf057610bf061186d565b6020910101516001600160f81b031916600160fd1b1480610c355750848181518110610c1e57610c1e61186d565b6020910101516001600160f81b031916600960f81b145b15610c4c5780610c4481611896565b915050610bd3565b805b855181108015610c835750858181518110610c6b57610c6b61186d565b6020910101516001600160f81b031916600560f91b14155b15610c9a5780610c9281611896565b915050610c4e565b6000610ca6838361185a565b67ffffffffffffffff811115610cbe57610cbe6118af565b6040519080825280601f01601f191660200182016040528015610ce8576020820181803683370190505b50905060005b610cf8848461185a565b811015610d565787610d0a8286611883565b81518110610d1a57610d1a61186d565b602001015160f81c60f81b828281518110610d3757610d3761186d565b60200101906001600160f81b031916908160001a905350600101610cee565b509650610b1e95505050505050565b50600101610b2b565b5050604080516020810190915260008152949350505050565b610d8f611496565b610d97611496565b6000610dd885858080601f01602080910402602001604051908101604052809392919081815260200183838082843760009201919091525061113a92505050565b9050610e0581604051806040016040528060098152602001686861636b65726f6e6560b81b815250610a2e565b15610e3957604051806040016040528060098152602001684861636b65724f6e6560b81b8152508260200181905250610f79565b610e638160405180604001604052806008815260200167189d59d8dc9bddd960c21b815250610a2e565b15610e965760405180604001604052806008815260200167109d59d8dc9bddd960c21b8152508260200181905250610f79565b610ec08160405180604001604052806008815260200167696d6d756e65666960c01b815250610a2e565b15610ef35760405180604001604052806008815260200167496d6d756e65666960c01b8152508260200181905250610f79565b610f1e8160405180604001604052806009815260200168696e7469677269746960b81b815250610a2e565b15610f525760405180604001604052806009815260200168496e7469677269746960b81b8152508260200181905250610f79565b6040518060400160405280600581526020016427ba3432b960d91b81525082602001819052505b610fa3816040518060400160405280600881526020016718dc9a5d1a58d85b60c21b815250610a2e565b15610fd657604080518082018252600881526710dc9a5d1a58d85b60c21b60208201529083015260646060830152611100565b610ffc81604051806040016040528060048152602001630d0d2ced60e31b815250610a2e565b1561102b576040805180820182526004815263090d2ced60e31b60208201529083015260466060830152611100565b61105381604051806040016040528060068152602001656d656469756d60d01b815250610a2e565b156110845760408051808201825260068152654d656469756d60d01b60208201529083015260286060830152611100565b6110a981604051806040016040528060038152602001626c6f7760e81b815250610a2e565b156110d75760408051808201825260038152624c6f7760e81b60208201529083015260146060830152611100565b60408051808201825260078152662ab735b737bbb760c91b602082015290830152600a60608301525b61110a8585611293565b60a083015250600160c0820152600060e08201529392505050565b61112d611443565b611135611443565b919050565b606060008290506000815167ffffffffffffffff81111561115d5761115d6118af565b6040519080825280601f01601f191660200182016040528015611187576020820181803683370190505b50905060005b825181101561128b5760418382815181106111aa576111aa61186d565b016020015160f81c108015906111da5750605a8382815181106111cf576111cf61186d565b016020015160f81c11155b1561123c578281815181106111f1576111f161186d565b602001015160f81c60f81b60f81c602061120b91906118c5565b60f81b8282815181106112205761122061186d565b60200101906001600160f81b031916908160001a905350611283565b82818151811061124e5761124e61186d565b602001015160f81c60f81b82828151811061126b5761126b61186d565b60200101906001600160f81b031916908160001a9053505b60010161118d565b509392505050565b6060600083836040516112a79291906118de565b60405190819003902090506112bb816112e3565b6040516020016112cb91906118ee565b60405160208183030381529060405291505092915050565b60608160000361130a5750506040805180820190915260018152600360fc1b602082015290565b8160005b8115611334578061131e81611896565b915061132d9050601083611930565b915061130e565b60008167ffffffffffffffff81111561134f5761134f6118af565b6040519080825280601f01601f191660200182016040528015611379576020820181803683370190505b5090505b841561143b578161138d81611944565b925061139c905060108661195b565b6113a7906030611883565b60f81b8183815181106113bc576113bc61186d565b60200101906001600160f81b031916908160001a90535060096113e060108761195b565b1115611429576113f160108661195b565b6113fc906057611883565b60f81b8183815181106114115761141161186d565b60200101906001600160f81b031916908160001a9053505b611434601086611930565b945061137d565b949350505050565b6040518060800160405280611456611505565b8152600060208083018290526040808401839052805160a08101825283815291820183905281018290526060818101839052608082019290925291015290565b60405180610100016040528060006001600160a01b031681526020016060815260200160608152602001600081526020016000815260200160608152602001600015158152602001600081525090565b6040518061010001604052806008906020820280368337509192915050565b604080516060810190915260008152602081016115206114e6565b81526020016000905290565b60006020828403121561153e57600080fd5b5035919050565b60008083601f84011261155757600080fd5b50813567ffffffffffffffff81111561156f57600080fd5b60208301915083602082850101111561158757600080fd5b9250929050565b600080600080604085870312156115a457600080fd5b843567ffffffffffffffff8111156115bb57600080fd5b6115c787828801611545565b909550935050602085013567ffffffffffffffff8111156115e757600080fd5b6115f387828801611545565b95989497509550505050565b805180516001600160e01b031916835260208082015190840160005b600881101561163a57825182526020928301929091019060010161161b565b505050604001516002811061165f57634e487b7160e01b600052602160045260246000fd5b61012083015260208181015161014084015260408083015161016085015260609283015180516001600160a01b0316610180860152918201516001600160e01b0319166101a08501528101516101c0840152908101516101e08301526080015161020090910152565b60005b838110156116e35781810151838201526020016116cb565b50506000910152565b600081518084526117048160208601602086016116c8565b601f01601f19169290920160200192915050565b80516001600160a01b031682526000602082015161010060208501526117426101008501826116ec565b90506040830151848203604086015261175b82826116ec565b915050606083015160608501526080830151608085015260a083015184820360a086015261178982826116ec565b91505060c083015161179f60c086018215159052565b5060e083015160e08501528091505092915050565b6117be81846115ff565b610240610220820152600061143b610240830184611718565b6102208101610b1e82846115ff565b600080604083850312156117f957600080fd5b50508035926020909101359150565b60006020828403121561181a57600080fd5b8151801515811461182a57600080fd5b9392505050565b60208152600061182a6020830184611718565b634e487b7160e01b600052601160045260246000fd5b81810381811115610b1e57610b1e611844565b634e487b7160e01b600052603260045260246000fd5b80820180821115610b1e57610b1e611844565b6000600182016118a8576118a8611844565b5060010190565b634e487b7160e01b600052604160045260246000fd5b60ff8181168382160190811115610b1e57610b1e611844565b8183823760009101908152919050565b635355425f60e01b81526000825161190d8160048501602087016116c8565b9190910160040192915050565b634e487b7160e01b600052601260045260246000fd5b60008261193f5761193f61191a565b500490565b60008161195357611953611844565b506000190190565b60008261196a5761196a61191a565b50069056fea26469706673582212204fadf846cab76282d4341ff2038ecad68284a8b6e1fed7d4a02f1e0bf9ad81cd64736f6c634300081c0033","linkReferences":{}},"methodIdentifiers":{"proof()":"faf924cf","prove(string,string)":"cb7bba61","setBlock(uint256)":"87cea3ae","setChain(uint256,uint256)":"ffbc5638"},"id":4}