{"abi":[{"type":"constructor","inputs":[{"name":"_proverContract","type":"address","internalType":"address"}],"stateMutability":"nonpayable"},{"type":"function","name":"_setTestVerifier","inputs":[{"name":"newVerifier","type":"address","internalType":"contract IProofVerifier"}],"outputs":[],"stateMutability":"nonpayable"},{"type":"function","name":"approve","inputs":[{"name":"to","type":"address","internalType":"address"},{"name":"tokenId","type":"uint256","internalType":"uint256"}],"outputs":[],"stateMutability":"nonpayable"},{"type":"function","name":"balanceOf","inputs":[{"name":"owner","type":"address","internalType":"address"}],"outputs":[{"name":"","type":"uint256","internalType":"uint256"}],"stateMutability":"view"},{"type":"function","name":"calculateMerits","inputs":[{"name":"severity","type":"string","internalType":"string"}],"outputs":[{"name":"","type":"uint256","internalType":"uint256"}],"stateMutability":"pure"},{"type":"function","name":"getAllUsers","inputs":[],"outputs":[{"name":"","type":"address[]","internalType":"address[]"}],"stateMutability":"view"},{"type":"function","name":"getApproved","inputs":[{"name":"tokenId","type":"uint256","internalType":"uint256"}],"outputs":[{"name":"","type":"address","internalType":"address"}],"stateMutability":"view"},{"type":"function","name":"getBadgeCount","inputs":[{"name":"user","type":"address","internalType":"address"}],"outputs":[{"name":"","type":"uint256","internalType":"uint256"}],"stateMutability":"view"},{"type":"function","name":"getUserBadges","inputs":[{"name":"user","type":"address","internalType":"address"}],"outputs":[{"name":"","type":"tuple[]","internalType":"struct BadgeInfo[]","components":[{"name":"platform","type":"string","internalType":"string"},{"name":"severity","type":"string","internalType":"string"},{"name":"merits","type":"uint256","internalType":"uint256"},{"name":"timestamp","type":"uint256","internalType":"uint256"},{"name":"submissionId","type":"string","internalType":"string"},{"name":"verified","type":"bool","internalType":"bool"},{"name":"tokenId","type":"uint256","internalType":"uint256"}]}],"stateMutability":"view"},{"type":"function","name":"getUserMerits","inputs":[{"name":"user","type":"address","internalType":"address"}],"outputs":[{"name":"","type":"uint256","internalType":"uint256"}],"stateMutability":"view"},{"type":"function","name":"getUserStats","inputs":[{"name":"user","type":"address","internalType":"address"}],"outputs":[{"name":"totalMerits","type":"uint256","internalType":"uint256"},{"name":"badgeCount","type":"uint256","internalType":"uint256"},{"name":"criticalCount","type":"uint256","internalType":"uint256"},{"name":"highCount","type":"uint256","internalType":"uint256"},{"name":"mediumCount","type":"uint256","internalType":"uint256"},{"name":"lowCount","type":"uint256","internalType":"uint256"}],"stateMutability":"view"},{"type":"function","name":"isApprovedForAll","inputs":[{"name":"owner","type":"address","internalType":"address"},{"name":"operator","type":"address","internalType":"address"}],"outputs":[{"name":"","type":"bool","internalType":"bool"}],"stateMutability":"view"},{"type":"function","name":"isUser","inputs":[{"name":"","type":"address","internalType":"address"}],"outputs":[{"name":"","type":"bool","internalType":"bool"}],"stateMutability":"view"},{"type":"function","name":"name","inputs":[],"outputs":[{"name":"","type":"string","internalType":"string"}],"stateMutability":"view"},{"type":"function","name":"nextTokenId","inputs":[],"outputs":[{"name":"","type":"uint256","internalType":"uint256"}],"stateMutability":"view"},{"type":"function","name":"ownerOf","inputs":[{"name":"tokenId","type":"uint256","internalType":"uint256"}],"outputs":[{"name":"","type":"address","internalType":"address"}],"stateMutability":"view"},{"type":"function","name":"platformImageUrls","inputs":[{"name":"","type":"string","internalType":"string"}],"outputs":[{"name":"","type":"string","internalType":"string"}],"stateMutability":"view"},{"type":"function","name":"proverContract","inputs":[],"outputs":[{"name":"","type":"address","internalType":"address"}],"stateMutability":"view"},{"type":"function","name":"safeTransferFrom","inputs":[{"name":"from","type":"address","internalType":"address"},{"name":"to","type":"address","internalType":"address"},{"name":"tokenId","type":"uint256","internalType":"uint256"}],"outputs":[],"stateMutability":"nonpayable"},{"type":"function","name":"safeTransferFrom","inputs":[{"name":"from","type":"address","internalType":"address"},{"name":"to","type":"address","internalType":"address"},{"name":"tokenId","type":"uint256","internalType":"uint256"},{"name":"data","type":"bytes","internalType":"bytes"}],"outputs":[],"stateMutability":"nonpayable"},{"type":"function","name":"setApprovalForAll","inputs":[{"name":"operator","type":"address","internalType":"address"},{"name":"approved","type":"bool","internalType":"bool"}],"outputs":[],"stateMutability":"nonpayable"},{"type":"function","name":"setPlatformImage","inputs":[{"name":"platform","type":"string","internalType":"string"},{"name":"imageUrl","type":"string","internalType":"string"}],"outputs":[],"stateMutability":"nonpayable"},{"type":"function","name":"submitBugBountyProof","inputs":[{"name":"proof","type":"tuple","internalType":"struct Proof","components":[{"name":"seal","type":"tuple","internalType":"struct Seal","components":[{"name":"verifierSelector","type":"bytes4","internalType":"bytes4"},{"name":"seal","type":"bytes32[8]","internalType":"bytes32[8]"},{"name":"mode","type":"uint8","internalType":"enum ProofMode"}]},{"name":"callGuestId","type":"bytes32","internalType":"bytes32"},{"name":"length","type":"uint256","internalType":"uint256"},{"name":"callAssumptions","type":"tuple","internalType":"struct CallAssumptions","components":[{"name":"proverContractAddress","type":"address","internalType":"address"},{"name":"functionSelector","type":"bytes4","internalType":"bytes4"},{"name":"settleChainId","type":"uint256","internalType":"uint256"},{"name":"settleBlockNumber","type":"uint256","internalType":"uint256"},{"name":"settleBlockHash","type":"bytes32","internalType":"bytes32"}]}]},{"name":"platform","type":"string","internalType":"string"},{"name":"severity","type":"string","internalType":"string"},{"name":"submissionId","type":"string","internalType":"string"}],"outputs":[],"stateMutability":"nonpayable"},{"type":"function","name":"supportsInterface","inputs":[{"name":"interfaceId","type":"bytes4","internalType":"bytes4"}],"outputs":[{"name":"","type":"bool","internalType":"bool"}],"stateMutability":"view"},{"type":"function","name":"symbol","inputs":[],"outputs":[{"name":"","type":"string","internalType":"string"}],"stateMutability":"view"},{"type":"function","name":"tokenIdToBadge","inputs":[{"name":"","type":"uint256","internalType":"uint256"}],"outputs":[{"name":"platform","type":"string","internalType":"string"},{"name":"severity","type":"string","internalType":"string"},{"name":"merits","type":"uint256","internalType":"uint256"},{"name":"timestamp","type":"uint256","internalType":"uint256"},{"name":"submissionId","type":"string","internalType":"string"},{"name":"verified","type":"bool","internalType":"bool"},{"name":"tokenId","type":"uint256","internalType":"uint256"}],"stateMutability":"view"},{"type":"function","name":"tokenURI","inputs":[{"name":"tokenId","type":"uint256","internalType":"uint256"}],"outputs":[{"name":"","type":"string","internalType":"string"}],"stateMutability":"view"},{"type":"function","name":"totalSubmissions","inputs":[],"outputs":[{"name":"","type":"uint256","internalType":"uint256"}],"stateMutability":"view"},{"type":"function","name":"transferFrom","inputs":[{"name":"from","type":"address","internalType":"address"},{"name":"to","type":"address","internalType":"address"},{"name":"tokenId","type":"uint256","internalType":"uint256"}],"outputs":[],"stateMutability":"nonpayable"},{"type":"function","name":"usedSubmissionIds","inputs":[{"name":"","type":"string","internalType":"string"}],"outputs":[{"name":"","type":"bool","internalType":"bool"}],"stateMutability":"view"},{"type":"function","name":"userSeverityCounts","inputs":[{"name":"","type":"address","internalType":"address"},{"name":"","type":"string","internalType":"string"}],"outputs":[{"name":"","type":"uint256","internalType":"uint256"}],"stateMutability":"view"},{"type":"function","name":"userTokenIds","inputs":[{"name":"","type":"address","internalType":"address"},{"name":"","type":"uint256","internalType":"uint256"}],"outputs":[{"name":"","type":"uint256","internalType":"uint256"}],"stateMutability":"view"},{"type":"function","name":"userTotalMerits","inputs":[{"name":"","type":"address","internalType":"address"}],"outputs":[{"name":"","type":"uint256","internalType":"uint256"}],"stateMutability":"view"},{"type":"function","name":"users","inputs":[{"name":"","type":"uint256","internalType":"uint256"}],"outputs":[{"name":"","type":"address","internalType":"address"}],"stateMutability":"view"},{"type":"function","name":"verifier","inputs":[],"outputs":[{"name":"","type":"address","internalType":"contract IProofVerifier"}],"stateMutability":"view"},{"type":"event","name":"Approval","inputs":[{"name":"owner","type":"address","indexed":true,"internalType":"address"},{"name":"approved","type":"address","indexed":true,"internalType":"address"},{"name":"tokenId","type":"uint256","indexed":true,"internalType":"uint256"}],"anonymous":false},{"type":"event","name":"ApprovalForAll","inputs":[{"name":"owner","type":"address","indexed":true,"internalType":"address"},{"name":"operator","type":"address","indexed":true,"internalType":"address"},{"name":"approved","type":"bool","indexed":false,"internalType":"bool"}],"anonymous":false},{"type":"event","name":"BadgeAwarded","inputs":[{"name":"user","type":"address","indexed":true,"internalType":"address"},{"name":"platform","type":"string","indexed":false,"internalType":"string"},{"name":"severity","type":"string","indexed":false,"internalType":"string"},{"name":"merits","type":"uint256","indexed":false,"internalType":"uint256"},{"name":"submissionId","type":"string","indexed":false,"internalType":"string"},{"name":"tokenId","type":"uint256","indexed":false,"internalType":"uint256"}],"anonymous":false},{"type":"event","name":"Transfer","inputs":[{"name":"from","type":"address","indexed":true,"internalType":"address"},{"name":"to","type":"address","indexed":true,"internalType":"address"},{"name":"tokenId","type":"uint256","indexed":true,"internalType":"uint256"}],"anonymous":false},{"type":"error","name":"ERC721IncorrectOwner","inputs":[{"name":"sender","type":"address","internalType":"address"},{"name":"tokenId","type":"uint256","internalType":"uint256"},{"name":"owner","type":"address","internalType":"address"}]},{"type":"error","name":"ERC721InsufficientApproval","inputs":[{"name":"operator","type":"address","internalType":"address"},{"name":"tokenId","type":"uint256","internalType":"uint256"}]},{"type":"error","name":"ERC721InvalidApprover","inputs":[{"name":"approver","type":"address","internalType":"address"}]},{"type":"error","name":"ERC721InvalidOperator","inputs":[{"name":"operator","type":"address","internalType":"address"}]},{"type":"error","name":"ERC721InvalidOwner","inputs":[{"name":"owner","type":"address","internalType":"address"}]},{"type":"error","name":"ERC721InvalidReceiver","inputs":[{"name":"receiver","type":"address","internalType":"address"}]},{"type":"error","name":"ERC721InvalidSender","inputs":[{"name":"sender","type":"address","internalType":"address"}]},{"type":"error","name":"ERC721NonexistentToken","inputs":[{"name":"tokenId","type":"uint256","internalType":"uint256"}]},{"type":"error","name":"InvalidChainId","inputs":[]}],"bytecode":{"object":"0x60a0604052600160075534801561001557600080fd5b506040516160d53803806160d5833981016040819052610034916105b9565b6040518060400160405280600f81526020016e427567426f756e747942616467657360881b81525060405180604001604052806006815260200165424f554e545960d01b81525061008961025360201b60201c565b600080546001600160a01b0319166001600160a01b03929092169190911790553360805260016100b98382610688565b5060026100c68282610688565b5050601080546001600160a01b0319166001600160a01b038416179055506040805160608101909152602f8082526160a6602083013960408051684861636b65724f6e6560b81b815260098082015290519081900360290190209061012b9082610688565b506040518060600160405280602f81526020016160a6602f91396040805167109d59d8dc9bddd960c21b8152600960088201529051908190036028019020906101749082610688565b506040518060600160405280602f81526020016160a6602f91396040805167496d6d756e65666960c01b8152600960088201529051908190036028019020906101bd9082610688565b506040518060600160405280602f81526020016160a6602f91396040805168496e7469677269746960b81b81526009808201529051908190036029019020906102069082610688565b506040518060600160405280602f81526020016160a6602f9139604080516419db585a5b60da1b81526009600582015290519081900360250190209061024c9082610688565b5050610795565b600061025d6103fd565b1561036257600030306040516102729061059f565b6001600160a01b03928316815291166020820152604001604051809103906000f0801580156102a5573d6000803e3d6000fd5b506040516384cf84e160e01b81527fdcb00648ecc90d8bfe92aa8d51061beb0bcb110d274fc4a517e526574233d36b60048201529091506001600160a01b038216906384cf84e190602401600060405180830381600087803b15801561030a57600080fd5b505af115801561031e573d6000803e3d6000fd5b505050508060405161032f906105ac565b6001600160a01b039091168152602001604051809103906000f08015801561035b573d6000803e3d6000fd5b5091505090565b61036a61041a565b1561038d576000735553cf6ce25e3f80fad2866f6230346159ecd89c5b92915050565b610395610481565b156103e4576000739e30dc3e49c4d47f982902710616dcc4b6ff7bf5737e231cfc3e3b549633d5ad61c30f07dd4d408ad3738972b6ff413ac04e61e19f07d7f3bd980d0cc3215b949350505050565b604051633d23e4d160e11b815260040160405180910390fd5b60006104076104e4565b8061041557506104156104fb565b905090565b6000466001148061042b575046600a145b806104365750466089145b80610442575046610144145b8061044e5750466101e0145b8061045a575046612105145b8061046657504661a4b1145b8061047257504661a4ba145b8061041557505061e708461490565b60004662aa36a7148061049557504661012c145b806104a15750466112c1145b806104ad57504661e705145b806104ba57504662013882145b806104c757504662014a34145b806104d457504662066eee145b8061041557505062aa37dc461490565b600046617a69148061041557505062049919461490565b6000808061051e73f4e4fdca9d5d55e64525e314391996a15f7ec600601e610746565b6001600160a01b0316604051600060405180830381855afa9150503d8060008114610565576040519150601f19603f3d011682016040523d82523d6000602084013e61056a565b606091505b509150915081158061057b57508051155b156105895760009250505090565b6000818060200190518101906103dc9190610773565b6111ad80613a0783390190565b6114f280614bb483390190565b6000602082840312156105cb57600080fd5b81516001600160a01b03811681146105e257600080fd5b9392505050565b634e487b7160e01b600052604160045260246000fd5b600181811c9082168061061357607f821691505b60208210810361063357634e487b7160e01b600052602260045260246000fd5b50919050565b601f82111561068357806000526020600020601f840160051c810160208510156106605750805b601f840160051c820191505b81811015610680576000815560010161066c565b50505b505050565b81516001600160401b038111156106a1576106a16105e9565b6106b5816106af84546105ff565b84610639565b6020601f8211600181146106e957600083156106d15750848201515b600019600385901b1c1916600184901b178455610680565b600084815260208120601f198516915b8281101561071957878501518255602094850194600190920191016106f9565b50848210156107375786840151600019600387901b60f8161c191681555b50505050600190811b01905550565b6001600160a01b03818116838216019081111561038757634e487b7160e01b600052601160045260246000fd5b60006020828403121561078557600080fd5b815180151581146105e257600080fd5b6080516132576107b06000396000610f2101526132576000f3fe608060405234801561001057600080fd5b50600436106102065760003560e01c80636352211e1161011a578063a3954016116100ad578063cc17e15d1161007c578063cc17e15d146105d1578063db0331ad146105e4578063e2842d79146105f7578063e985e9c51461060c578063ff540a2b1461061f57600080fd5b8063a395401614610566578063b88d4fde1461056f578063c87b56dd14610582578063ca9794e91461059557600080fd5b806395d89b41116100e957806395d89b41146105255780639b8b30c81461052d5780639efb39f114610540578063a22cb4651461055357600080fd5b80636352211e146104e357806370a08231146104f657806375794a3c14610509578063811b0a031461051257600080fd5b80632b7ac3f31161019d5780634209fff11161016c5780634209fff11461037457806342842e0e14610397578063466df082146103aa5780634e43603a146103bd5780635faf0a4b146104bd57600080fd5b80632b7ac3f314610305578063365b98b21461031857806337c245fe1461032b5780633c2f06571461034b57600080fd5b806309a1e917116101d957806309a1e917146102885780630f80ec29146102a95780630fb91b88146102c957806323b872dd146102f257600080fd5b806301ffc9a71461020b57806306fdde0314610233578063081812fc14610248578063095ea7b314610273575b600080fd5b61021e61021936600461244a565b61064d565b60405190151581526020015b60405180910390f35b61023b61069f565b60405161022a91906124be565b61025b6102563660046124d1565b610731565b6040516001600160a01b03909116815260200161022a565b6102866102813660046124ff565b61075a565b005b61029b610296366004612573565b610769565b60405190815260200161022a565b61029b6102b73660046125b4565b600b6020526000908152604090205481565b61029b6102d73660046125b4565b6001600160a01b03166000908152600a602052604090205490565b6102866103003660046125d1565b6108ca565b60005461025b906001600160a01b031681565b61025b6103263660046124d1565b61095a565b61033e6103393660046125b4565b610984565b60405161022a9190612612565b61029b6103593660046125b4565b6001600160a01b03166000908152600b602052604090205490565b61021e6103823660046125b4565b600f6020526000908152604090205460ff1681565b6102866103a53660046125d1565b610c88565b6102866103b83660046126e2565b610ca8565b6104906103cb3660046125b4565b6001600160a01b03166000818152600b6020908152604080832054600a835281842054600c80855283862084516710dc9a5d1a58d85b60c21b81526008810182905285519081900360280181205489895283885263090d2ced60e31b8252600482018390528651918290036024018220548a8a52848952654d656469756d60d01b8352600683018490528751928390036026018320549a90995292909652624c6f7760e81b865260038601529251602394819003949094019093205490959294919392565b604080519687526020870195909552938501929092526060840152608083015260a082015260c00161022a565b6104d06104cb3660046124d1565b610cde565b60405161022a9796959493929190612751565b61025b6104f13660046124d1565b610eb4565b61029b6105043660046125b4565b610ebf565b61029b60075481565b60105461025b906001600160a01b031681565b61023b610f07565b61028661053b3660046125b4565b610f16565b61028661054e3660046127ad565b611116565b61028661056136600461287c565b61150f565b61029b60115481565b61028661057d366004612943565b61151a565b61023b6105903660046124d1565b611531565b61029b6105a33660046129e2565b600c602090815260009283526040909220815180830184018051928152908401929093019190912091525481565b61029b6105df3660046124ff565b61196a565b61023b6105f2366004612a31565b61199b565b6105ff611a40565b60405161022a9190612a65565b61021e61061a366004612ab1565b611aa1565b61021e61062d366004612a31565b8051602081830181018051600d8252928201919093012091525460ff1681565b60006001600160e01b031982166380ac58cd60e01b148061067e57506001600160e01b03198216635b5e139f60e01b145b8061069957506301ffc9a760e01b6001600160e01b03198316145b92915050565b6060600180546106ae90612adf565b80601f01602080910402602001604051908101604052809291908181526020018280546106da90612adf565b80156107275780601f106106fc57610100808354040283529160200191610727565b820191906000526020600020905b81548152906001019060200180831161070a57829003601f168201915b5050505050905090565b600061073c82611acf565b506000828152600560205260409020546001600160a01b0316610699565b610765828233611b08565b5050565b600080838360405161077c929190612b19565b60408051918290038220828201909152600882526710dc9a5d1a58d85b60c21b60209092019190915290507f3c53a278c24e3fca8ced0212eb44f4fe5f63e192beeb0bbbf7058b5dc30f1ae781016107d8576064915050610699565b604080518082019091526004815263090d2ced60e31b6020909101527f9cd5b8548d30043a803facdc1ea2a9cd54d74f24ef6a9a9e7755f4c40a7072a68101610825576046915050610699565b6040805180820190915260068152654d656469756d60d01b6020909101527f26a9bfb4b4420856c63e673f5f863c2c54814ce7bb59d33f6c9a7b41ca34d8328101610874576028915050610699565b6040805180820190915260038152624c6f7760e81b6020909101527f761de4af91b840bf2171e65620447553470a6810c9f3df840653789559db2bf681016108c0576014915050610699565b50600a9392505050565b6001600160a01b0382166108f957604051633250574960e11b8152600060048201526024015b60405180910390fd5b6000610906838333611b15565b9050836001600160a01b0316816001600160a01b031614610954576040516364283d7b60e01b81526001600160a01b03808616600483015260248201849052821660448201526064016108f0565b50505050565b600e818154811061096a57600080fd5b6000918252602090912001546001600160a01b0316905081565b6001600160a01b0381166000908152600a602052604081208054606092906001600160401b038111156109b9576109b96128b5565b604051908082528060200260200182016040528015610a2c57816020015b610a196040518060e001604052806060815260200160608152602001600081526020016000815260200160608152602001600015158152602001600081525090565b8152602001906001900390816109d75790505b50905060005b8254811015610c805760086000848381548110610a5157610a51612b29565b906000526020600020015481526020019081526020016000206040518060e0016040529081600082018054610a8590612adf565b80601f0160208091040260200160405190810160405280929190818152602001828054610ab190612adf565b8015610afe5780601f10610ad357610100808354040283529160200191610afe565b820191906000526020600020905b815481529060010190602001808311610ae157829003601f168201915b50505050508152602001600182018054610b1790612adf565b80601f0160208091040260200160405190810160405280929190818152602001828054610b4390612adf565b8015610b905780601f10610b6557610100808354040283529160200191610b90565b820191906000526020600020905b815481529060010190602001808311610b7357829003601f168201915b505050505081526020016002820154815260200160038201548152602001600482018054610bbd90612adf565b80601f0160208091040260200160405190810160405280929190818152602001828054610be990612adf565b8015610c365780601f10610c0b57610100808354040283529160200191610c36565b820191906000526020600020905b815481529060010190602001808311610c1957829003601f168201915b5050509183525050600582015460ff16151560208201526006909101546040909101528251839083908110610c6d57610c6d612b29565b6020908102919091010152600101610a32565b509392505050565b610ca38383836040518060200160405280600081525061151a565b505050565b818160098686604051610cbc929190612b19565b90815260200160405180910390209182610cd7929190612b86565b5050505050565b600860205260009081526040902080548190610cf990612adf565b80601f0160208091040260200160405190810160405280929190818152602001828054610d2590612adf565b8015610d725780601f10610d4757610100808354040283529160200191610d72565b820191906000526020600020905b815481529060010190602001808311610d5557829003601f168201915b505050505090806001018054610d8790612adf565b80601f0160208091040260200160405190810160405280929190818152602001828054610db390612adf565b8015610e005780601f10610dd557610100808354040283529160200191610e00565b820191906000526020600020905b815481529060010190602001808311610de357829003601f168201915b505050505090806002015490806003015490806004018054610e2190612adf565b80601f0160208091040260200160405190810160405280929190818152602001828054610e4d90612adf565b8015610e9a5780601f10610e6f57610100808354040283529160200191610e9a565b820191906000526020600020905b815481529060010190602001808311610e7d57829003601f168201915b505050506005830154600690930154919260ff1691905087565b600061069982611acf565b60006001600160a01b038216610eeb576040516322718ad960e21b8152600060048201526024016108f0565b506001600160a01b031660009081526004602052604090205490565b6060600280546106ae90612adf565b336001600160a01b037f00000000000000000000000000000000000000000000000000000000000000001614610f985760405162461bcd60e51b815260206004820152602160248201527f4f6e6c79206465706c6f7965722063616e206368616e676520766572696669656044820152603960f91b60648201526084016108f0565b610fa0611c0e565b80610fae5750610fae611c2b565b6110205760405162461bcd60e51b815260206004820152603760248201527f4368616e67696e6720766572696669657273206973206f6e6c7920616c6c6f7760448201527f6564206f6e206465766e6574206f7220746573746e657400000000000000000060648201526084016108f0565b60006001600160a01b0316816001600160a01b0316633fd66f226040518163ffffffff1660e01b8152600401602060405180830381865afa158015611069573d6000803e3d6000fd5b505050506040513d601f19601f8201168201806040525081019061108d9190612c45565b6001600160a01b0316036110f45760405162461bcd60e51b815260206004820152602860248201527f56657269666965722773207265706f7369746f72792061646472657373206973604482015267081b9bdd081cd95d60c21b60648201526084016108f0565b600080546001600160a01b0319166001600160a01b0392909216919091179055565b6010546001600160a01b03166111346101a089016101808a016125b4565b6001600160a01b03161461117b5760405162461bcd60e51b815260206004820152600e60248201526d24b73b30b634b210383937bb32b960911b60448201526064016108f0565b600d828260405161118d929190612b19565b9081526040519081900360200190205460ff16156111ed5760405162461bcd60e51b815260206004820152601760248201527f5375626d697373696f6e20616c7265616479207573656400000000000000000060448201526064016108f0565b6001600d8383604051611201929190612b19565b9081526040805160209281900383019020805460ff191693151593909317909255336000908152600f909152205460ff1661129157600e805460018181019092557fbb7b4a454dc3493923482f07822329ed19e8244eff582cc204f8554c3620c3fd0180546001600160a01b031916339081179091556000908152600f60205260409020805460ff191690911790555b600061129d8585610769565b6007805491925060009190826112b283612c78565b9190505590506112c23382611c8e565b604080516101006020601f8b01819004028201810190925260e081018981526000928291908c908c9081908501838280828437600092019190915250505090825250604080516020601f8b0181900481028201810190925289815291810191908a908a90819084018382808284376000920191909152505050908252506020808201869052426040808401919091528051601f890183900483028101830190915287815260609092019190889088908190840183828082843760009201829052509385525050600160208085019190915260409384018790528683526008905250208151919250829181906113b79082612c91565b50602082015160018201906113cc9082612c91565b506040820151600282015560608201516003820155608082015160048201906113f59082612c91565b5060a082015160058201805460ff191691151591909117905560c090910151600690910155336000818152600a60209081526040808320805460018101825590845282842001869055928252600b90529081208054859290611458908490612d4f565b9091555050336000908152600c602052604090819020905161147d9089908990612b19565b908152604051908190036020019020805490600061149a83612c78565b9091555050601180549060006114af83612c78565b9190505550336001600160a01b03167fce4b937e26d7122470bad37738a08f4dc8a24f5d4a2d70082ddf47a57c4744388a8a8a8a888b8b8a6040516114fb989796959493929190612d8b565b60405180910390a250505050505050505050565b610765338383611ca8565b6115258484846108ca565b61095484848484611d47565b6000818152600360205260409020546060906001600160a01b031661158e5760405162461bcd60e51b8152602060048201526013602482015272151bdad95b88191bd95cdb89dd08195e1a5cdd606a1b60448201526064016108f0565b600082815260086020526040808220815160e081019092528054829082906115b590612adf565b80601f01602080910402602001604051908101604052809291908181526020018280546115e190612adf565b801561162e5780601f106116035761010080835404028352916020019161162e565b820191906000526020600020905b81548152906001019060200180831161161157829003601f168201915b5050505050815260200160018201805461164790612adf565b80601f016020809104026020016040519081016040528092919081815260200182805461167390612adf565b80156116c05780601f10611695576101008083540402835291602001916116c0565b820191906000526020600020905b8154815290600101906020018083116116a357829003601f168201915b5050505050815260200160028201548152602001600382015481526020016004820180546116ed90612adf565b80601f016020809104026020016040519081016040528092919081815260200182805461171990612adf565b80156117665780601f1061173b57610100808354040283529160200191611766565b820191906000526020600020905b81548152906001019060200180831161174957829003601f168201915b5050509183525050600582015460ff16151560208201526006909101546040918201528151905191925060009160099161179f91612dff565b908152602001604051809103902080546117b890612adf565b80601f01602080910402602001604051908101604052809291908181526020018280546117e490612adf565b80156118315780601f1061180657610100808354040283529160200191611831565b820191906000526020600020905b81548152906001019060200180831161181457829003601f168201915b50505050509050805160000361185d576040518060600160405280602f81526020016131b3602f913990505b815160405160009161187191602001612e1b565b6040516020818303038152906040529050600083600001516040516020016118999190612e67565b60405160208183030381529060405290506000836040516020016118bd9190612ed3565b6040516020818303038152906040529050600085602001516118e28760400151611e69565b87608001516040516020016118f993929190612f12565b60405160208183030381529060405290506000848484846040516020016119239493929190613051565b604051602081830303815290604052905061193d81611efb565b60405160200161194d91906130a8565b604051602081830303815290604052975050505050505050919050565b600a602052816000526040600020818154811061198657600080fd5b90600052602060002001600091509150505481565b8051602081830181018051600982529282019190930120915280546119bf90612adf565b80601f01602080910402602001604051908101604052809291908181526020018280546119eb90612adf565b8015611a385780601f10611a0d57610100808354040283529160200191611a38565b820191906000526020600020905b815481529060010190602001808311611a1b57829003601f168201915b505050505081565b6060600e80548060200260200160405190810160405280929190818152602001828054801561072757602002820191906000526020600020905b81546001600160a01b03168152600190910190602001808311611a7a575050505050905090565b6001600160a01b03918216600090815260066020908152604080832093909416825291909152205460ff1690565b6000818152600360205260408120546001600160a01b03168061069957604051637e27328960e01b8152600481018490526024016108f0565b610ca3838383600161204d565b6000828152600360205260408120546001600160a01b0390811690831615611b4257611b42818486612153565b6001600160a01b03811615611b8057611b5f60008560008061204d565b6001600160a01b038116600090815260046020526040902080546000190190555b6001600160a01b03851615611baf576001600160a01b0385166000908152600460205260409020805460010190555b60008481526003602052604080822080546001600160a01b0319166001600160a01b0389811691821790925591518793918516917fddf252ad1be2c89b69c2b068fc378daa952ba7f163c4a11628f55a4df523b3ef91a4949350505050565b6000611c186121b7565b80611c265750611c266121ce565b905090565b60004662aa36a71480611c3f57504661012c145b80611c4b5750466112c1145b80611c5757504661e705145b80611c6457504662013882145b80611c7157504662014a34145b80611c7e57504662066eee145b80611c2657505062aa37dc461490565b61076582826040518060200160405280600081525061227a565b6001600160a01b038216611cda57604051630b61174360e31b81526001600160a01b03831660048201526024016108f0565b6001600160a01b03838116600081815260066020908152604080832094871680845294825291829020805460ff191686151590811790915591519182527f17307eab39ab6107e8899845ad3d59bd9653f200f220920489ca2b5937696c31910160405180910390a3505050565b6001600160a01b0383163b1561095457604051630a85bd0160e11b81526001600160a01b0384169063150b7a0290611d899033908890879087906004016130ed565b6020604051808303816000875af1925050508015611dc4575060408051601f3d908101601f19168201909252611dc191810190613120565b60015b611e2d573d808015611df2576040519150601f19603f3d011682016040523d82523d6000602084013e611df7565b606091505b508051600003611e2557604051633250574960e11b81526001600160a01b03851660048201526024016108f0565b805181602001fd5b6001600160e01b03198116630a85bd0160e11b14610cd757604051633250574960e11b81526001600160a01b03851660048201526024016108f0565b60606000611e7683612291565b60010190506000816001600160401b03811115611e9557611e956128b5565b6040519080825280601f01601f191660200182016040528015611ebf576020820181803683370190505b5090508181016020015b600019016f181899199a1a9b1b9c1cb0b131b232b360811b600a86061a8153600a8504945084611ec957509392505050565b60608151600003611f1a57505060408051602081019091526000815290565b60006040518060600160405280604081526020016131e26040913990506000600384516002611f499190612d4f565b611f53919061313d565b611f5e90600461315f565b6001600160401b03811115611f7557611f756128b5565b6040519080825280601f01601f191660200182016040528015611f9f576020820181803683370190505b509050600182016020820185865187015b8082101561200b576003820191508151603f8160121c168501518453600184019350603f81600c1c168501518453600184019350603f8160061c168501518453600184019350603f8116850151845350600183019250611fb0565b5050600386510660018114612027576002811461203a57612042565b603d6001830353603d6002830353612042565b603d60018303535b509195945050505050565b808061206157506001600160a01b03821615155b1561212357600061207184611acf565b90506001600160a01b0383161580159061209d5750826001600160a01b0316816001600160a01b031614155b80156120b057506120ae8184611aa1565b155b156120d95760405163a9fbf51f60e01b81526001600160a01b03841660048201526024016108f0565b81156121215783856001600160a01b0316826001600160a01b03167f8c5be1e5ebec7d5bd14f71427d1e84f3dd0314c0f7b2291e5b200ac8c7c3b92560405160405180910390a45b505b5050600090815260056020526040902080546001600160a01b0319166001600160a01b0392909216919091179055565b61215e838383612369565b610ca3576001600160a01b03831661218c57604051637e27328960e01b8152600481018290526024016108f0565b60405163177e802f60e01b81526001600160a01b0383166004820152602481018290526044016108f0565b600046617a691480611c2657505062049919461490565b600080806121f173f4e4fdca9d5d55e64525e314391996a15f7ec600601e613176565b6001600160a01b0316604051600060405180830381855afa9150503d8060008114612238576040519150601f19603f3d011682016040523d82523d6000602084013e61223d565b606091505b509150915081158061224e57508051155b1561225c5760009250505090565b6000818060200190518101906122729190613195565b949350505050565b61228483836123cc565b610ca36000848484611d47565b60008072184f03e93ff9f4daa797ed6e38ed64bf6a1f0160401b83106122d05772184f03e93ff9f4daa797ed6e38ed64bf6a1f0160401b830492506040015b6d04ee2d6d415b85acef810000000083106122fc576d04ee2d6d415b85acef8100000000830492506020015b662386f26fc10000831061231a57662386f26fc10000830492506010015b6305f5e1008310612332576305f5e100830492506008015b612710831061234657612710830492506004015b60648310612358576064830492506002015b600a83106106995760010192915050565b60006001600160a01b038316158015906122725750826001600160a01b0316846001600160a01b031614806123a357506123a38484611aa1565b806122725750506000908152600560205260409020546001600160a01b03908116911614919050565b6001600160a01b0382166123f657604051633250574960e11b8152600060048201526024016108f0565b600061240483836000611b15565b90506001600160a01b03811615610ca3576040516339e3563760e11b8152600060048201526024016108f0565b6001600160e01b03198116811461244757600080fd5b50565b60006020828403121561245c57600080fd5b813561246781612431565b9392505050565b60005b83811015612489578181015183820152602001612471565b50506000910152565b600081518084526124aa81602086016020860161246e565b601f01601f19169290920160200192915050565b6020815260006124676020830184612492565b6000602082840312156124e357600080fd5b5035919050565b6001600160a01b038116811461244757600080fd5b6000806040838503121561251257600080fd5b823561251d816124ea565b946020939093013593505050565b60008083601f84011261253d57600080fd5b5081356001600160401b0381111561255457600080fd5b60208301915083602082850101111561256c57600080fd5b9250929050565b6000806020838503121561258657600080fd5b82356001600160401b0381111561259c57600080fd5b6125a88582860161252b565b90969095509350505050565b6000602082840312156125c657600080fd5b8135612467816124ea565b6000806000606084860312156125e657600080fd5b83356125f1816124ea565b92506020840135612601816124ea565b929592945050506040919091013590565b6000602082016020835280845180835260408501915060408160051b86010192506020860160005b828110156126d657603f198786030184528151805160e0875261266060e0880182612492565b9050602082015187820360208901526126798282612492565b9150506040820151604088015260608201516060880152608082015187820360808901526126a78282612492565b60a0848101511515908a015260c09384015193909801929092525050602093840193919091019060010161263a565b50929695505050505050565b600080600080604085870312156126f857600080fd5b84356001600160401b0381111561270e57600080fd5b61271a8782880161252b565b90955093505060208501356001600160401b0381111561273957600080fd5b6127458782880161252b565b95989497509550505050565b60e08152600061276460e083018a612492565b8281036020840152612776818a612492565b905087604084015286606084015282810360808401526127968187612492565b94151560a0840152505060c0015295945050505050565b60008060008060008060008789036102808112156127ca57600080fd5b6102208112156127d957600080fd5b508796506102208801356001600160401b038111156127f757600080fd5b6128038a828b0161252b565b9097509550506102408801356001600160401b0381111561282357600080fd5b61282f8a828b0161252b565b9095509350506102608801356001600160401b0381111561284f57600080fd5b61285b8a828b0161252b565b989b979a50959850939692959293505050565b801515811461244757600080fd5b6000806040838503121561288f57600080fd5b823561289a816124ea565b915060208301356128aa8161286e565b809150509250929050565b634e487b7160e01b600052604160045260246000fd5b6000806001600160401b038411156128e5576128e56128b5565b50604051601f19601f85018116603f011681018181106001600160401b0382111715612913576129136128b5565b60405283815290508082840185101561292b57600080fd5b83836020830137600060208583010152509392505050565b6000806000806080858703121561295957600080fd5b8435612964816124ea565b93506020850135612974816124ea565b92506040850135915060608501356001600160401b0381111561299657600080fd5b8501601f810187136129a757600080fd5b6129b6878235602084016128cb565b91505092959194509250565b600082601f8301126129d357600080fd5b612467838335602085016128cb565b600080604083850312156129f557600080fd5b8235612a00816124ea565b915060208301356001600160401b03811115612a1b57600080fd5b612a27858286016129c2565b9150509250929050565b600060208284031215612a4357600080fd5b81356001600160401b03811115612a5957600080fd5b612272848285016129c2565b602080825282518282018190526000918401906040840190835b81811015612aa65783516001600160a01b0316835260209384019390920191600101612a7f565b509095945050505050565b60008060408385031215612ac457600080fd5b8235612acf816124ea565b915060208301356128aa816124ea565b600181811c90821680612af357607f821691505b602082108103612b1357634e487b7160e01b600052602260045260246000fd5b50919050565b8183823760009101908152919050565b634e487b7160e01b600052603260045260246000fd5b601f821115610ca357806000526020600020601f840160051c81016020851015612b665750805b601f840160051c820191505b81811015610cd75760008155600101612b72565b6001600160401b03831115612b9d57612b9d6128b5565b612bb183612bab8354612adf565b83612b3f565b6000601f841160018114612be55760008515612bcd5750838201355b600019600387901b1c1916600186901b178355610cd7565b600083815260209020601f19861690835b82811015612c165786850135825560209485019460019092019101612bf6565b5086821015612c335760001960f88860031b161c19848701351681555b505060018560011b0183555050505050565b600060208284031215612c5757600080fd5b8151612467816124ea565b634e487b7160e01b600052601160045260246000fd5b600060018201612c8a57612c8a612c62565b5060010190565b81516001600160401b03811115612caa57612caa6128b5565b612cbe81612cb88454612adf565b84612b3f565b6020601f821160018114612cf25760008315612cda5750848201515b600019600385901b1c1916600184901b178455610cd7565b600084815260208120601f198516915b82811015612d225787850151825560209485019460019092019101612d02565b5084821015612d405786840151600019600387901b60f8161c191681555b50505050600190811b01905550565b8082018082111561069957610699612c62565b81835281816020850137506000828201602090810191909152601f909101601f19169091010190565b60a081526000612d9f60a083018a8c612d62565b8281036020840152612db281898b612d62565b90508660408401528281036060840152612dcd818688612d62565b9150508260808301529998505050505050505050565b60008151612df581856020860161246e565b9290920192915050565b60008251612e1181846020870161246e565b9190910192915050565b693d913730b6b2911d101160b11b81528151600090612e4181600a85016020870161246e565b6e08109bdd5b9d1e4810985919d9488b608a1b600a939091019283015250601901919050565b7f226465736372697074696f6e223a202256657269666965642062756720626f758152710373a3c9039bab136b4b9b9b4b7b71037b7160751b602082015260008251612eba81603285016020870161246e565b61088b60f21b6032939091019283015250603401919050565b691134b6b0b3b2911d101160b11b81528151600090612ef981600a85016020870161246e565b61088b60f21b600a939091019283015250600c01919050565b6e2261747472696275746573223a205b60881b81527f7b2274726169745f74797065223a20225365766572697479222c202276616c75600f8201526432911d101160d91b602f8201528351600090612f7181603485016020890161246e565b62089f4b60ea1b6034918401918201527f7b2274726169745f74797065223a20224d6572697473222c202276616c75652260378201526101d160f51b60578201528451612fc581605984016020890161246e565b603481830101915050611f4b60f21b602582015261304761303961302b613025602785017f7b2274726169745f74797065223a20225375626d697373696f6e204944222c20815269113b30b63ab2911d101160b11b6020820152602a0190565b87612de3565b61227d60f01b815260020190565b615d7d60f01b815260020190565b9695505050505050565b60008551613063818460208a0161246e565b855190830190613077818360208a0161246e565b855191019061308a81836020890161246e565b845191019061309d81836020880161246e565b019695505050505050565b7f646174613a6170706c69636174696f6e2f6a736f6e3b6261736536342c0000008152600082516130e081601d85016020870161246e565b91909101601d0192915050565b6001600160a01b038581168252841660208201526040810183905260806060820181905260009061304790830184612492565b60006020828403121561313257600080fd5b815161246781612431565b60008261315a57634e487b7160e01b600052601260045260246000fd5b500490565b808202811582820484141761069957610699612c62565b6001600160a01b03818116838216019081111561069957610699612c62565b6000602082840312156131a757600080fd5b81516124678161286e56fe68747470733a2f2f70697065647265616d2e636f6d2f732e76302f6170705f4a51683741572f6c6f676f2f6f7269674142434445464748494a4b4c4d4e4f505152535455565758595a6162636465666768696a6b6c6d6e6f707172737475767778797a303132333435363738392b2fa2646970667358221220038a6b41cdcece5464c9440cb93c5e73a577a9766db65f1183ac84409b45cf3864736f6c634300081c0033608060405234801561001057600080fd5b506040516111ad3803806111ad83398101604081905261002f916101c2565b61003a60008361006d565b506100657fb19546dff01e856fb3f010c267a7b1c60363cf8a4664e21cc89c26224620214e8261006d565b5050506101f5565b60008061007a84846100a5565b9050801561009c57600084815260016020526040902061009a908461014f565b505b90505b92915050565b6000828152602081815260408083206001600160a01b038516845290915281205460ff16610147576000838152602081815260408083206001600160a01b03861684529091529020805460ff191660011790556100ff3390565b6001600160a01b0316826001600160a01b0316847f2f8788117e7eff1d82e926ec794901d17c78024a50270940304540a733656f0d60405160405180910390a450600161009f565b50600061009f565b600061009c836001600160a01b03841660008181526001830160205260408120546101475750815460018181018455600084815260208082209093018490558454848252828601909352604090209190915561009f565b80516001600160a01b03811681146101bd57600080fd5b919050565b600080604083850312156101d557600080fd5b6101de836101a6565b91506101ec602084016101a6565b90509250929050565b610fa9806102046000396000f3fe608060405234801561001057600080fd5b50600436106101375760003560e01c8063853b5d19116100b8578063c5df91b51161007c578063c5df91b5146102db578063ca0d5358146102ee578063ca15c87314610301578063d547741f14610314578063e58378bb14610327578063f2fde38b1461033c57600080fd5b8063853b5d191461026f5780639010d07c1461028257806391d14854146102ad578063a217fddf146102c0578063ada8f919146102c857600080fd5b80632f2ff15d116100ff5780632f2ff15d146101f857806336568abe1461020b578063755e936f1461021e57806381e4c9a31461023157806384cf84e11461025c57600080fd5b806301ffc9a71461013c5780631af6c43114610164578063248a9ca3146101875780632505a3bd146101b85780632ad82eea146101e3575b600080fd5b61014f61014a366004610d04565b61034f565b60405190151581526020015b60405180910390f35b61014f610172366004610d2e565b60009081526003602052604090205460ff1690565b6101aa610195366004610d2e565b60009081526020819052604090206001015490565b60405190815260200161015b565b61014f6101c6366004610dd7565b805160209182012060009081526004909152604090205460ff1690565b6101f66101f1366004610dd7565b61037a565b005b6101f6610206366004610e44565b610451565b6101f6610219366004610e44565b61047c565b6101f661022c366004610dd7565b6104b4565b61014f61023f366004610dd7565b805160209182012060009081526002909152604090205460ff1690565b6101f661026a366004610d2e565b61057a565b6101f661027d366004610dd7565b610648565b610295610290366004610e70565b61070d565b6040516001600160a01b03909116815260200161015b565b61014f6102bb366004610e44565b61072c565b6101aa600081565b6101f66102d6366004610e92565b610755565b6101f66102e9366004610d2e565b61076e565b6101f66102fc366004610dd7565b610836565b6101aa61030f366004610d2e565b6108fc565b6101f6610322366004610e44565b610913565b6101aa600080516020610f5483398151915281565b6101f661034a366004610e92565b610938565b60006001600160e01b03198216635a05180f60e01b1480610374575061037482610989565b92915050565b600080516020610f54833981519152610392816109be565b81516020808401919091206000818152600490925260409091205460ff16156103f95760405162461bcd60e51b815260206004820152601460248201527312d95e481a5cc8185b1c9958591e481d985b1a5960621b60448201526064015b60405180910390fd5b60008181526004602052604090819020805460ff191660011790555133907fcbfa55581c230aeb174d969838d927cdd297755dfb967a33134312f1377ee71d90610444908690610ef3565b60405180910390a2505050565b60008281526020819052604090206001015461046c816109be565b61047683836109c8565b50505050565b6001600160a01b03811633146104a55760405163334bd91960e11b815260040160405180910390fd5b6104af82826109fd565b505050565b600080516020610f548339815191526104cc816109be565b81516020808401919091206000818152600290925260409091205460ff166105325760405162461bcd60e51b815260206004820152601960248201527843616e6e6f74207265766f6b6520696e76616c6964206b657960381b60448201526064016103f0565b60008181526002602052604090819020805460ff191690555133907f66e43f8252a3257fe010a4fd6ae50f57624762cc64a6eceadb04b18cfdefac7d90610444908690610ef3565b600080516020610f54833981519152610592816109be565b60008281526003602052604090205460ff16156105f15760405162461bcd60e51b815260206004820152601c60248201527f496d616765494420697320616c726561647920737570706f727465640000000060448201526064016103f0565b60008281526003602052604090819020805460ff19166001179055517f010120d82c0c66b257c0ea628d405b1d3c2d37bb8dd9141f6c5c12cb0375c5729061063c9084815260200190565b60405180910390a15050565b600080516020610f54833981519152610660816109be565b81516020808401919091206000818152600290925260409091205460ff16156106c25760405162461bcd60e51b815260206004820152601460248201527312d95e481a5cc8185b1c9958591e481d985b1a5960621b60448201526064016103f0565b60008181526002602052604090819020805460ff191660011790555133907f0a249d4766726d36cb6d6ac22cf998dc9fc02bb4ff9fda73ec1e3061c8a1db0990610444908690610ef3565b60008281526001602052604081206107259083610a2a565b9392505050565b6000918252602082815260408084206001600160a01b0393909316845291905290205460ff1690565b610760600082610451565b61076b60003361047c565b50565b600080516020610f54833981519152610786816109be565b60008281526003602052604090205460ff166107ee5760405162461bcd60e51b815260206004820152602160248201527f43616e6e6f74207265766f6b6520756e737570706f7274656420496d616765496044820152601160fa1b60648201526084016103f0565b60008281526003602052604090819020805460ff19169055517f4072861add20da436ef0a8274b90d102aea17b603f972cc8196d51f1a5d561799061063c9084815260200190565b600080516020610f5483398151915261084e816109be565b81516020808401919091206000818152600490925260409091205460ff166108b45760405162461bcd60e51b815260206004820152601960248201527843616e6e6f74207265766f6b6520696e76616c6964206b657960381b60448201526064016103f0565b60008181526004602052604090819020805460ff191690555133907f69c40cdda8ad6e074bf320a4a76804a6652eb5231bda91b690dcb98010b2707990610444908690610ef3565b600081815260016020526040812061037490610a36565b60008281526020819052604090206001015461092e816109be565b61047683836109fd565b6000610953600080516020610f54833981519152600061070d565b905061096d600080516020610f5483398151915282610913565b610985600080516020610f5483398151915283610451565b5050565b60006001600160e01b03198216637965db0b60e01b148061037457506301ffc9a760e01b6001600160e01b0319831614610374565b61076b8133610a40565b6000806109d58484610a79565b905080156107255760008481526001602052604090206109f59084610b0b565b509392505050565b600080610a0a8484610b20565b905080156107255760008481526001602052604090206109f59084610b8b565b60006107258383610ba0565b6000610374825490565b610a4a828261072c565b6109855760405163e2517d3f60e01b81526001600160a01b0382166004820152602481018390526044016103f0565b6000610a85838361072c565b610b03576000838152602081815260408083206001600160a01b03861684529091529020805460ff19166001179055610abb3390565b6001600160a01b0316826001600160a01b0316847f2f8788117e7eff1d82e926ec794901d17c78024a50270940304540a733656f0d60405160405180910390a4506001610374565b506000610374565b6000610725836001600160a01b038416610bca565b6000610b2c838361072c565b15610b03576000838152602081815260408083206001600160a01b0386168085529252808320805460ff1916905551339286917ff6391f5c32d9c69d2a47ea670b442974b53935d1edc7fd64eb21e047a839171b9190a4506001610374565b6000610725836001600160a01b038416610c11565b6000826000018281548110610bb757610bb7610f06565b9060005260206000200154905092915050565b6000818152600183016020526040812054610b0357508154600181810184556000848152602080822090930184905584548482528286019093526040902091909155610374565b60008181526001830160205260408120548015610cfa576000610c35600183610f1c565b8554909150600090610c4990600190610f1c565b9050808214610cae576000866000018281548110610c6957610c69610f06565b9060005260206000200154905080876000018481548110610c8c57610c8c610f06565b6000918252602080832090910192909255918252600188019052604090208390555b8554869080610cbf57610cbf610f3d565b600190038181906000526020600020016000905590558560010160008681526020019081526020016000206000905560019350505050610374565b6000915050610374565b600060208284031215610d1657600080fd5b81356001600160e01b03198116811461072557600080fd5b600060208284031215610d4057600080fd5b5035919050565b634e487b7160e01b600052604160045260246000fd5b60008067ffffffffffffffff841115610d7857610d78610d47565b50604051601f19601f85018116603f0116810181811067ffffffffffffffff82111715610da757610da7610d47565b604052838152905080828401851015610dbf57600080fd5b83836020830137600060208583010152509392505050565b600060208284031215610de957600080fd5b813567ffffffffffffffff811115610e0057600080fd5b8201601f81018413610e1157600080fd5b610e2084823560208401610d5d565b949350505050565b80356001600160a01b0381168114610e3f57600080fd5b919050565b60008060408385031215610e5757600080fd5b82359150610e6760208401610e28565b90509250929050565b60008060408385031215610e8357600080fd5b50508035926020909101359150565b600060208284031215610ea457600080fd5b61072582610e28565b6000815180845260005b81811015610ed357602081850181015186830182015201610eb7565b506000602082860101526020601f19601f83011685010191505092915050565b6020815260006107256020830184610ead565b634e487b7160e01b600052603260045260246000fd5b8181038181111561037457634e487b7160e01b600052601160045260246000fd5b634e487b7160e01b600052603160045260246000fdfeb19546dff01e856fb3f010c267a7b1c60363cf8a4664e21cc89c26224620214ea264697066735822122067a2ff5112b2051b0f7f1bf3c415040eb9f05d1da3ef6ed0ec22675ae8f21c6064736f6c634300081c003360e060405234801561001057600080fd5b506040516114f23803806114f283398101604081905261002f91610132565b6001600160a01b03811660c0526100446100bc565b1561006257604051633d23e4d160e11b815260040160405180910390fd5b60405163deafbeef60e01b9061007790610125565b6001600160e01b03199091168152602001604051809103906000f0801580156100a4573d6000803e3d6000fd5b506001600160a01b031660a052506001608052610162565b600046600114806100cd575046600a145b806100d85750466089145b806100e4575046610144145b806100f05750466101e0145b806100fc575046612105145b8061010857504661a4b1145b8061011457504661a4ba145b8061012057504661e708145b905090565b61090e80610be483390190565b60006020828403121561014457600080fd5b81516001600160a01b038116811461015b57600080fd5b9392505050565b60805160a05160c051610a3a6101aa6000396000818160a20152818161011401526104e50152600081816061015261017001526000818160cb01526102090152610a3a6000f3fe608060405234801561001057600080fd5b50600436106100575760003560e01c806308c84e701461005c5780633fd66f22146100a05780639a44ea84146100c6578063c4fa74e5146100fa578063f4cbae941461010f575b600080fd5b6100837f000000000000000000000000000000000000000000000000000000000000000081565b6040516001600160a01b0390911681526020015b60405180910390f35b7f0000000000000000000000000000000000000000000000000000000000000000610083565b6100ed7f000000000000000000000000000000000000000000000000000000000000000081565b604051610097919061064b565b61010d6101083660046106a2565b610136565b005b6100837f000000000000000000000000000000000000000000000000000000000000000081565b61014d61014836869003860186610841565b610207565b61016661015f36869003860186610841565b838361029a565b6001600160a01b037f00000000000000000000000000000000000000000000000000000000000000001663ab750e756101ac6101a7368890038801886108f5565b6105a9565b866101400135866040518463ffffffff1660e01b81526004016101d193929190610919565b60006040518083038186803b1580156101e957600080fd5b505afa1580156101fd573d6000803e3d6000fd5b5050505050505050565b7f0000000000000000000000000000000000000000000000000000000000000000600181111561023957610239610635565b815160400151600181111561025057610250610635565b146102975760405162461bcd60e51b8152602060048201526012602482015271496e76616c69642070726f6f66206d6f646560701b60448201526064015b60405180910390fd5b50565b816001600160a01b03168360600151600001516001600160a01b0316146102f45760405162461bcd60e51b815260206004820152600e60248201526d24b73b30b634b210383937bb32b960911b604482015260640161028e565b806001600160e01b0319168360600151602001516001600160e01b031916146103525760405162461bcd60e51b815260206004820152601060248201526f24b73b30b634b21039b2b632b1ba37b960811b604482015260640161028e565b468360600151604001511461039c5760405162461bcd60e51b815260206004820152601060248201526f125b9d985b1a590818da185a5b881a5960821b604482015260640161028e565b43836060015160600151106104035760405162461bcd60e51b815260206004820152602760248201527f496e76616c696420626c6f636b206e756d6265723a20626c6f636b2066726f6d6044820152662066757475726560c81b606482015260840161028e565b4361010084606001516060015161041a9190610975565b10156104745760405162461bcd60e51b815260206004820152602360248201527f496e76616c696420626c6f636b206e756d6265723a20626c6f636b20746f6f206044820152621bdb1960ea1b606482015260840161028e565b82606001516060015140836060015160800151146104c95760405162461bcd60e51b8152602060048201526012602482015271092dcecc2d8d2c840c4d8dec6d640d0c2e6d60731b604482015260640161028e565b6020830151604051631af6c43160e01b815260048101919091527f00000000000000000000000000000000000000000000000000000000000000006001600160a01b031690631af6c43190602401602060405180830381865afa158015610534573d6000803e3d6000fd5b505050506040513d601f19601f82011682018060405250810190610558919061099c565b6105a45760405162461bcd60e51b815260206004820152601760248201527f556e737570706f727465642043616c6c47756573744964000000000000000000604482015260640161028e565b505050565b60606001826040015160018111156105c3576105c3610635565b036106045750602081810151519151604080516001600160e01b03199092169282019290925260248082019390935281518082039093018352604401905290565b815160208084015160405161061a9392016109be565b6040516020818303038152906040529050919050565b919050565b634e487b7160e01b600052602160045260246000fd5b602081016002831061066d57634e487b7160e01b600052602160045260246000fd5b91905290565b80356001600160a01b038116811461063057600080fd5b80356001600160e01b03198116811461063057600080fd5b6000806000808486036102808112156106ba57600080fd5b6102208112156106c957600080fd5b5084935061022084013592506106e26102408501610673565b91506106f1610260860161068a565b905092959194509250565b634e487b7160e01b600052604160045260246000fd5b6040516060810167ffffffffffffffff81118282101715610735576107356106fc565b60405290565b604051610100810167ffffffffffffffff81118282101715610735576107356106fc565b6040516080810167ffffffffffffffff81118282101715610735576107356106fc565b60405160a0810167ffffffffffffffff81118282101715610735576107356106fc565b80356002811061063057600080fd5b600061014082840312156107c757600080fd5b6107cf610712565b90506107da8261068a565b815282603f8301126107eb57600080fd5b6107f361073b565b8061012084018581111561080657600080fd5b602085015b8181101561082357803584526020938401930161080b565b50816020850152610833816107a5565b604085015250505092915050565b60008183036102208112801561085657600080fd5b50600061086161075f565b61086b86866107b4565b81526101408501356020820152610160850135604082015260a061017f1984011215610895578182fd5b61089d610782565b92506108ac6101808601610673565b83526108bb6101a0860161068a565b60208401526101c085013560408401526101e085013560608085019190915261020090950135608084015293840191909152509092915050565b6000610140828403121561090857600080fd5b61091283836107b4565b9392505050565b606081526000845180606084015260005b81811015610947576020818801810151608086840101520161092a565b506000608082850101526080601f19601f830116840101915050836020830152826040830152949350505050565b8082018082111561099657634e487b7160e01b600052601160045260246000fd5b92915050565b6000602082840312156109ae57600080fd5b8151801515811461091257600080fd5b6001600160e01b03198316815260006004820183825b60088110156109f35781518352602092830192909101906001016109d4565b50505061010482019050939250505056fea2646970667358221220936440b5a5dc8c150dc57951143a3ad7a890098413617b412cf9afe0047e08bb64736f6c634300081c003360a060405234801561001057600080fd5b5060405161090e38038061090e83398101604081905261002f91610041565b6001600160e01b031916608052610072565b60006020828403121561005357600080fd5b81516001600160e01b03198116811461006b57600080fd5b9392505050565b60805161086e6100a06000396000818160610152818160ee015281816101fa015261025f015261086e6000f3fe608060405234801561001057600080fd5b50600436106100575760003560e01c8063053c238d1461005c5780631599ead5146100a15780633a115bb1146100b657806366cf0e4b14610149578063ab750e751461015c575b600080fd5b6100837f000000000000000000000000000000000000000000000000000000000000000081565b6040516001600160e01b031990911681526020015b60405180910390f35b6100b46100af3660046105cc565b61016f565b005b61013c6100c4366004610607565b604080518082019091526060815260006020820152604080518082019091526001600160e01b03197f000000000000000000000000000000000000000000000000000000000000000016606082015260648101839052806084810160408051601f198184030181529190528152602001929092525090565b6040516100989190610644565b61013c61015736600461068a565b610189565b6100b461016a3660046106ac565b6101ba565b61018661017c828061072d565b83602001356101d7565b50565b6040805180820190915260608152600060208201526101b36100c46101ae85856102fc565b61038a565b9392505050565b6101d184846101cc6101ae86866102fc565b6101d7565b50505050565b6101e560046000848661077b565b6101ee916107a5565b6001600160e01b0319167f00000000000000000000000000000000000000000000000000000000000000006001600160e01b031916146102925761023660046000848661077b565b61023f916107a5565b604051632e2ce35360e21b81526001600160e01b031991821660048201527f0000000000000000000000000000000000000000000000000000000000000000909116602482015260440160405180910390fd5b60408051602081018390520160408051601f1981840301815291905280516020909101206102c3836004818761077b565b6040516102d19291906107dd565b6040518091039020146102f75760405163439cc0cd60e01b815260040160405180910390fd5b505050565b610304610587565b6040805160a0810182528481527fa3acc27117418996340b84e5a90f3ef4c49d22c79e44aad822ec9c313e1eb8e260208201528151808301835290918201908060008152602001600060ff1681525081526020016000801b815260200161038160405180604001604052808681526020016000801b8152506104ef565b90529392505050565b60006002806040516103b4907172697363302e52656365697074436c61696d60701b815260120190565b602060405180830381855afa1580156103d1573d6000803e3d6000fd5b5050506040513d601f19601f820116820180604052508101906103f49190610803565b6060840151845160208601516080870151604088015151601890600281111561041f5761041f6107ed565b60408a810151602090810151825191820199909952908101969096526060860194909452608085019290925260a084015263ffffffff909116901b60e01b6001600160e01b03191660c082015260f89190911b6001600160f81b03191660c4820152600160fa1b60c882015260ca015b60408051601f19818403018152908290526104a99161081c565b602060405180830381855afa1580156104c6573d6000803e3d6000fd5b5050506040513d601f19601f820116820180604052508101906104e99190610803565b92915050565b6000600280604051610513906b1c9a5cd8cc0b93dd5d1c1d5d60a21b8152600c0190565b602060405180830381855afa158015610530573d6000803e3d6000fd5b5050506040513d601f19601f820116820180604052508101906105539190610803565b83516020808601516040805192830194909452928101919091526060810191909152600160f91b608082015260820161048f565b6040805160a081018252600080825260208201529081016105b8604080518082019091526000808252602082015290565b815260006020820181905260409091015290565b6000602082840312156105de57600080fd5b813567ffffffffffffffff8111156105f557600080fd5b8201604081850312156101b357600080fd5b60006020828403121561061957600080fd5b5035919050565b60005b8381101561063b578181015183820152602001610623565b50506000910152565b602081526000825160406020840152805180606085015261066c816080860160208501610620565b60209490940151604084015250506080601f909201601f1916010190565b6000806040838503121561069d57600080fd5b50508035926020909101359150565b600080600080606085870312156106c257600080fd5b843567ffffffffffffffff8111156106d957600080fd5b8501601f810187136106ea57600080fd5b803567ffffffffffffffff81111561070157600080fd5b87602082840101111561071357600080fd5b602091820198909750908601359560400135945092505050565b6000808335601e1984360301811261074457600080fd5b83018035915067ffffffffffffffff82111561075f57600080fd5b60200191503681900382131561077457600080fd5b9250929050565b6000808585111561078b57600080fd5b8386111561079857600080fd5b5050820193919092039150565b80356001600160e01b031981169060048410156107d6576001600160e01b0319600485900360031b81901b82161691505b5092915050565b8183823760009101908152919050565b634e487b7160e01b600052602160045260246000fd5b60006020828403121561081557600080fd5b5051919050565b6000825161082e818460208701610620565b919091019291505056fea26469706673582212201a73c3e0410d9424ab9842726e73aa8e61e8def571643db5d843cf59efcd47e864736f6c634300081c003368747470733a2f2f70697065647265616d2e636f6d2f732e76302f6170705f4a51683741572f6c6f676f2f6f726967","linkReferences":{}},"methodIdentifiers":{"_setTestVerifier(address)":"9b8b30c8","approve(address,uint256)":"095ea7b3","balanceOf(address)":"70a08231","calculateMerits(string)":"09a1e917","getAllUsers()":"e2842d79","getApproved(uint256)":"081812fc","getBadgeCount(address)":"0fb91b88","getUserBadges(address)":"37c245fe","getUserMerits(address)":"3c2f0657","getUserStats(address)":"4e43603a","isApprovedForAll(address,address)":"e985e9c5","isUser(address)":"4209fff1","name()":"06fdde03","nextTokenId()":"75794a3c","ownerOf(uint256)":"6352211e","platformImageUrls(string)":"db0331ad","proverContract()":"811b0a03","safeTransferFrom(address,address,uint256)":"42842e0e","safeTransferFrom(address,address,uint256,bytes)":"b88d4fde","setApprovalForAll(address,bool)":"a22cb465","setPlatformImage(string,string)":"466df082","submitBugBountyProof(((bytes4,bytes32[8],uint8),bytes32,uint256,(address,bytes4,uint256,uint256,bytes32)),string,string,string)":"9efb39f1","supportsInterface(bytes4)":"01ffc9a7","symbol()":"95d89b41","tokenIdToBadge(uint256)":"5faf0a4b","tokenURI(uint256)":"c87b56dd","totalSubmissions()":"a3954016","transferFrom(address,address,uint256)":"23b872dd","usedSubmissionIds(string)":"ff540a2b","userSeverityCounts(address,string)":"ca9794e9","userTokenIds(address,uint256)":"cc17e15d","userTotalMerits(address)":"0f80ec29","users(uint256)":"365b98b2","verifier()":"2b7ac3f3"},"id":66}