{"abi":[{"type":"function","name":"proof","inputs":[],"outputs":[{"name":"","type":"tuple","internalType":"struct Proof","components":[{"name":"seal","type":"tuple","internalType":"struct Seal","components":[{"name":"verifierSelector","type":"bytes4","internalType":"bytes4"},{"name":"seal","type":"bytes32[8]","internalType":"bytes32[8]"},{"name":"mode","type":"uint8","internalType":"enum ProofMode"}]},{"name":"callGuestId","type":"bytes32","internalType":"bytes32"},{"name":"length","type":"uint256","internalType":"uint256"},{"name":"callAssumptions","type":"tuple","internalType":"struct CallAssumptions","components":[{"name":"proverContractAddress","type":"address","internalType":"address"},{"name":"functionSelector","type":"bytes4","internalType":"bytes4"},{"name":"settleChainId","type":"uint256","internalType":"uint256"},{"name":"settleBlockNumber","type":"uint256","internalType":"uint256"},{"name":"settleBlockHash","type":"bytes32","internalType":"bytes32"}]}]}],"stateMutability":"pure"},{"type":"function","name":"prove","inputs":[{"name":"emailContent","type":"string","internalType":"string"},{"name":"emailHeaders","type":"string","internalType":"string"},{"name":"reporter","type":"address","internalType":"address"}],"outputs":[{"name":"","type":"tuple","internalType":"struct Proof","components":[{"name":"seal","type":"tuple","internalType":"struct Seal","components":[{"name":"verifierSelector","type":"bytes4","internalType":"bytes4"},{"name":"seal","type":"bytes32[8]","internalType":"bytes32[8]"},{"name":"mode","type":"uint8","internalType":"enum ProofMode"}]},{"name":"callGuestId","type":"bytes32","internalType":"bytes32"},{"name":"length","type":"uint256","internalType":"uint256"},{"name":"callAssumptions","type":"tuple","internalType":"struct CallAssumptions","components":[{"name":"proverContractAddress","type":"address","internalType":"address"},{"name":"functionSelector","type":"bytes4","internalType":"bytes4"},{"name":"settleChainId","type":"uint256","internalType":"uint256"},{"name":"settleBlockNumber","type":"uint256","internalType":"uint256"},{"name":"settleBlockHash","type":"bytes32","internalType":"bytes32"}]}]},{"name":"","type":"tuple","internalType":"struct BugBountySubmission","components":[{"name":"reporter","type":"address","internalType":"address"},{"name":"platform","type":"string","internalType":"string"},{"name":"severity","type":"string","internalType":"string"},{"name":"merits","type":"uint256","internalType":"uint256"},{"name":"timestamp","type":"uint256","internalType":"uint256"},{"name":"submissionId","type":"string","internalType":"string"},{"name":"verified","type":"bool","internalType":"bool"},{"name":"tokenId","type":"uint256","internalType":"uint256"}]}],"stateMutability":"view"},{"type":"function","name":"setBlock","inputs":[{"name":"blockNo","type":"uint256","internalType":"uint256"}],"outputs":[],"stateMutability":"nonpayable"},{"type":"function","name":"setChain","inputs":[{"name":"chainId","type":"uint256","internalType":"uint256"},{"name":"blockNo","type":"uint256","internalType":"uint256"}],"outputs":[],"stateMutability":"nonpayable"}],"bytecode":{"object":"0x6080604052348015600f57600080fd5b506119d38061001f6000396000f3fe608060405234801561001057600080fd5b506004361061004c5760003560e01c80631c3abc7c1461005157806387cea3ae1461007b578063faf924cf14610090578063ffbc5638146100a5575b600080fd5b61006461005f36600461157f565b6100b8565b6040516100729291906117c9565b60405180910390f35b61008e6100893660046117ec565b61088e565b005b610098610953565b6040516100729190611805565b61008e6100b3366004611814565b610968565b6100c061144d565b6100c86114a0565b61012e87878080601f0160208091040260200160405190810160405280939291908181526020018383808284376000920191909152505060408051808201909152600f81526e636f6e67726174756c6174696f6e7360881b60208201529150610a389050565b8015610192575061019287878080601f016020809104026020016040519081016040528093929190818152602001838380828437600092019190915250506040805180820190915260068152651c995dd85c9960d21b60208201529150610a389050565b80156101f657506101f687878080601f01602080910402602001604051908101604052809392919081815260200183838082843760009201919091525050604080518082019091526006815265626f756e747960d01b60208201529150610a389050565b6102475760405162461bcd60e51b815260206004820152601c60248201527f4e6f7420612076616c69642062756720626f756e747920656d61696c0000000060448201526064015b60405180910390fd5b60006102ae86868080601f0160208091040260200160405190810160405280939291908181526020018383808284376000920191909152505060408051808201909152600e81526d444b494d2d5369676e617475726560901b60208201529150610b2e9050565b9050600061031f87878080601f0160208091040260200160405190810160405280939291908181526020018383808284376000920191909152505060408051808201909152601681527541757468656e7469636174696f6e2d526573756c747360501b60208201529150610b2e9050565b9050600061037e88888080601f0160208091040260200160405190810160405280939291908181526020018383808284376000920191909152505060408051808201909152600481526346726f6d60e01b60208201529150610b2e9050565b905060008351116103ca5760405162461bcd60e51b81526020600482015260166024820152754d697373696e6720444b494d207369676e617475726560501b604482015260640161023e565b6103f482604051806040016040528060088152602001677370663d7061737360c01b815250610a38565b6104335760405162461bcd60e51b815260206004820152601060248201526f14d4118818da1958dac819985a5b195960821b604482015260640161023e565b610462816040518060400160405280600d81526020016c6861636b65726f6e652e636f6d60981b815250610a38565b156104f357610498836040518060400160405280600f81526020016e643d6861636b65726f6e652e636f6d60881b815250610a38565b6104ee5760405162461bcd60e51b815260206004820152602160248201527f496e76616c696420444b494d20646f6d61696e20666f72204861636b65724f6e6044820152606560f81b606482015260840161023e565b6107b1565b610521816040518060400160405280600c81526020016b62756763726f77642e636f6d60a01b815250610a38565b156105a257610556836040518060400160405280600e81526020016d643d62756763726f77642e636f6d60901b815250610a38565b6104ee5760405162461bcd60e51b815260206004820181905260248201527f496e76616c696420444b494d20646f6d61696e20666f722042756763726f7764604482015260640161023e565b6105d0816040518060400160405280600c81526020016b696d6d756e6566692e636f6d60a01b815250610a38565b1561065157610605836040518060400160405280600e81526020016d643d696d6d756e6566692e636f6d60901b815250610a38565b6104ee5760405162461bcd60e51b815260206004820181905260248201527f496e76616c696420444b494d20646f6d61696e20666f7220496d6d756e656669604482015260640161023e565b610680816040518060400160405280600d81526020016c696e746967726974692e636f6d60981b815250610a38565b1561070c576106b6836040518060400160405280600f81526020016e643d696e746967726974692e636f6d60881b815250610a38565b6104ee5760405162461bcd60e51b815260206004820152602160248201527f496e76616c696420444b494d20646f6d61696e20666f7220496e7469677269746044820152606960f81b606482015260840161023e565b6107378160405180604001604052806009815260200168676d61696c2e636f6d60b81b815250610a38565b15610769576106b6836040518060400160405280600b81526020016a643d676d61696c2e636f6d60a81b815250610a38565b60405162461bcd60e51b815260206004820152601b60248201527f556e737570706f7274656420706c6174666f726d20646f6d61696e0000000000604482015260640161023e565b60006107bd8b8b610d91565b6001600160a01b0388168152426080820152600160c0820152600060e082018190529091506107ea61112f565b90506107f46114f0565b604080516060810182526000808252602080830185905260018385015291855284820152905161082691859101611836565b60408051601f19818403018152918152905183820152805160a08101825230815263070eaf1f60e21b602082015246918101919091524360608201819052608082019061087590600190611866565b4090526060830152509b909a5098505050505050505050565b6040516343e751d760e11b8152600481018290527376dc9aa45aa006a0f63942d8f9f21bd4537972a3906387cea3ae906024016020604051808303816000875af11580156108e0573d6000803e3d6000fd5b505050506040513d601f19601f820116820180604052508101906109049190611879565b6109505760405162461bcd60e51b815260206004820152601b60248201527f4661696c6564206368656174636f646520696e766f636174696f6e0000000000604482015260640161023e565b50565b61095b61144d565b61096361112f565b905090565b60405160016208753960e31b0319815260048101839052602481018290527376dc9aa45aa006a0f63942d8f9f21bd4537972a39063ffbc5638906044016020604051808303816000875af11580156109c4573d6000803e3d6000fd5b505050506040513d601f19601f820116820180604052508101906109e89190611879565b610a345760405162461bcd60e51b815260206004820152601b60248201527f4661696c6564206368656174636f646520696e766f636174696f6e0000000000604482015260640161023e565b5050565b600080610a4484611144565b90506000610a5184611144565b82518151919250839183911015610a6f576000945050505050610b28565b60005b81518351610a809190611866565b8111610b1e57600160005b8351811015610af557838181518110610aa657610aa661189b565b01602001516001600160f81b03191685610ac083866118b1565b81518110610ad057610ad061189b565b01602001516001600160f81b03191614610aed5760009150610af5565b600101610a8b565b508015610b0b5760019650505050505050610b28565b5080610b16816118c4565b915050610a72565b5060009450505050505b92915050565b6060828260005b81518351610b439190611866565b811015610d7857600160005b8351811015610bb957838181518110610b6a57610b6a61189b565b01602001516001600160f81b03191685610b8483866118b1565b81518110610b9457610b9461189b565b01602001516001600160f81b03191614610bb15760009150610bb9565b600101610b4f565b508015610d6f576000835183610bcf91906118b1565b610bda9060016118b1565b90505b845181108015610c3f5750848181518110610bfa57610bfa61189b565b6020910101516001600160f81b031916600160fd1b1480610c3f5750848181518110610c2857610c2861189b565b6020910101516001600160f81b031916600960f81b145b15610c565780610c4e816118c4565b915050610bdd565b805b855181108015610c8d5750858181518110610c7557610c7561189b565b6020910101516001600160f81b031916600560f91b14155b15610ca45780610c9c816118c4565b915050610c58565b6000610cb08383611866565b67ffffffffffffffff811115610cc857610cc86118dd565b6040519080825280601f01601f191660200182016040528015610cf2576020820181803683370190505b50905060005b610d028484611866565b811015610d605787610d1482866118b1565b81518110610d2457610d2461189b565b602001015160f81c60f81b828281518110610d4157610d4161189b565b60200101906001600160f81b031916908160001a905350600101610cf8565b509650610b2895505050505050565b50600101610b35565b5050604080516020810190915260008152949350505050565b610d996114a0565b610da16114a0565b6000610de285858080601f01602080910402602001604051908101604052809392919081815260200183838082843760009201919091525061114492505050565b9050610e0f81604051806040016040528060098152602001686861636b65726f6e6560b81b815250610a38565b15610e4357604051806040016040528060098152602001684861636b65724f6e6560b81b8152508260200181905250610f83565b610e6d8160405180604001604052806008815260200167189d59d8dc9bddd960c21b815250610a38565b15610ea05760405180604001604052806008815260200167109d59d8dc9bddd960c21b8152508260200181905250610f83565b610eca8160405180604001604052806008815260200167696d6d756e65666960c01b815250610a38565b15610efd5760405180604001604052806008815260200167496d6d756e65666960c01b8152508260200181905250610f83565b610f288160405180604001604052806009815260200168696e7469677269746960b81b815250610a38565b15610f5c5760405180604001604052806009815260200168496e7469677269746960b81b8152508260200181905250610f83565b6040518060400160405280600581526020016427ba3432b960d91b81525082602001819052505b610fad816040518060400160405280600881526020016718dc9a5d1a58d85b60c21b815250610a38565b15610fe057604080518082018252600881526710dc9a5d1a58d85b60c21b6020820152908301526064606083015261110a565b61100681604051806040016040528060048152602001630d0d2ced60e31b815250610a38565b15611035576040805180820182526004815263090d2ced60e31b6020820152908301526046606083015261110a565b61105d81604051806040016040528060068152602001656d656469756d60d01b815250610a38565b1561108e5760408051808201825260068152654d656469756d60d01b6020820152908301526028606083015261110a565b6110b381604051806040016040528060038152602001626c6f7760e81b815250610a38565b156110e15760408051808201825260038152624c6f7760e81b6020820152908301526014606083015261110a565b60408051808201825260078152662ab735b737bbb760c91b602082015290830152600a60608301525b611114858561129d565b60a083015250600160c0820152600060e08201529392505050565b61113761144d565b61113f61144d565b919050565b606060008290506000815167ffffffffffffffff811115611167576111676118dd565b6040519080825280601f01601f191660200182016040528015611191576020820181803683370190505b50905060005b82518110156112955760418382815181106111b4576111b461189b565b016020015160f81c108015906111e45750605a8382815181106111d9576111d961189b565b016020015160f81c11155b15611246578281815181106111fb576111fb61189b565b602001015160f81c60f81b60f81c602061121591906118f3565b60f81b82828151811061122a5761122a61189b565b60200101906001600160f81b031916908160001a90535061128d565b8281815181106112585761125861189b565b602001015160f81c60f81b8282815181106112755761127561189b565b60200101906001600160f81b031916908160001a9053505b600101611197565b509392505050565b6060600083836040516112b192919061190c565b60405190819003902090506112c5816112ed565b6040516020016112d5919061191c565b60405160208183030381529060405291505092915050565b6060816000036113145750506040805180820190915260018152600360fc1b602082015290565b8160005b811561133e5780611328816118c4565b9150611337905060108361195e565b9150611318565b60008167ffffffffffffffff811115611359576113596118dd565b6040519080825280601f01601f191660200182016040528015611383576020820181803683370190505b5090505b8415611445578161139781611972565b92506113a69050601086611989565b6113b19060306118b1565b60f81b8183815181106113c6576113c661189b565b60200101906001600160f81b031916908160001a90535060096113ea601087611989565b1115611433576113fb601086611989565b6114069060576118b1565b60f81b81838151811061141b5761141b61189b565b60200101906001600160f81b031916908160001a9053505b61143e60108661195e565b9450611387565b949350505050565b604051806080016040528061146061150f565b8152600060208083018290526040808401839052805160a08101825283815291820183905281018290526060818101839052608082019290925291015290565b60405180610100016040528060006001600160a01b031681526020016060815260200160608152602001600081526020016000815260200160608152602001600015158152602001600081525090565b6040518061010001604052806008906020820280368337509192915050565b6040805160608101909152600081526020810161152a6114f0565b81526020016000905290565b60008083601f84011261154857600080fd5b50813567ffffffffffffffff81111561156057600080fd5b60208301915083602082850101111561157857600080fd5b9250929050565b60008060008060006060868803121561159757600080fd5b853567ffffffffffffffff8111156115ae57600080fd5b6115ba88828901611536565b909650945050602086013567ffffffffffffffff8111156115da57600080fd5b6115e688828901611536565b90945092505060408601356001600160a01b038116811461160657600080fd5b809150509295509295909350565b805180516001600160e01b031916835260208082015190840160005b600881101561164f578251825260209283019290910190600101611630565b505050604001516002811061167457634e487b7160e01b600052602160045260246000fd5b61012083015260208181015161014084015260408083015161016085015260609283015180516001600160a01b0316610180860152918201516001600160e01b0319166101a08501528101516101c0840152908101516101e08301526080015161020090910152565b60005b838110156116f85781810151838201526020016116e0565b50506000910152565b600081518084526117198160208601602086016116dd565b601f01601f19169290920160200192915050565b80516001600160a01b03168252600060208201516101006020850152611757610100850182611701565b9050604083015184820360408601526117708282611701565b915050606083015160608501526080830151608085015260a083015184820360a086015261179e8282611701565b91505060c08301516117b460c086018215159052565b5060e083015160e08501528091505092915050565b6117d38184611614565b610240610220820152600061144561024083018461172d565b6000602082840312156117fe57600080fd5b5035919050565b6102208101610b288284611614565b6000806040838503121561182757600080fd5b50508035926020909101359150565b602081526000611849602083018461172d565b9392505050565b634e487b7160e01b600052601160045260246000fd5b81810381811115610b2857610b28611850565b60006020828403121561188b57600080fd5b8151801515811461184957600080fd5b634e487b7160e01b600052603260045260246000fd5b80820180821115610b2857610b28611850565b6000600182016118d6576118d6611850565b5060010190565b634e487b7160e01b600052604160045260246000fd5b60ff8181168382160190811115610b2857610b28611850565b8183823760009101908152919050565b635355425f60e01b81526000825161193b8160048501602087016116dd565b9190910160040192915050565b634e487b7160e01b600052601260045260246000fd5b60008261196d5761196d611948565b500490565b60008161198157611981611850565b506000190190565b60008261199857611998611948565b50069056fea264697066735822122015384ff736689fffeed78f6a844db6cb25625c87060e7ec2625c21970c8ba7b664736f6c634300081c0033","linkReferences":{}},"methodIdentifiers":{"proof()":"faf924cf","prove(string,string,address)":"1c3abc7c","setBlock(uint256)":"87cea3ae","setChain(uint256,uint256)":"ffbc5638"},"id":67}