{"abi":[{"type":"function","name":"proof","inputs":[],"outputs":[{"name":"","type":"tuple","internalType":"struct Proof","components":[{"name":"seal","type":"tuple","internalType":"struct Seal","components":[{"name":"verifierSelector","type":"bytes4","internalType":"bytes4"},{"name":"seal","type":"bytes32[8]","internalType":"bytes32[8]"},{"name":"mode","type":"uint8","internalType":"enum ProofMode"}]},{"name":"callGuestId","type":"bytes32","internalType":"bytes32"},{"name":"length","type":"uint256","internalType":"uint256"},{"name":"callAssumptions","type":"tuple","internalType":"struct CallAssumptions","components":[{"name":"proverContractAddress","type":"address","internalType":"address"},{"name":"functionSelector","type":"bytes4","internalType":"bytes4"},{"name":"settleChainId","type":"uint256","internalType":"uint256"},{"name":"settleBlockNumber","type":"uint256","internalType":"uint256"},{"name":"settleBlockHash","type":"bytes32","internalType":"bytes32"}]}]}],"stateMutability":"pure"},{"type":"function","name":"setBlock","inputs":[{"name":"blockNo","type":"uint256","internalType":"uint256"}],"outputs":[],"stateMutability":"nonpayable"},{"type":"function","name":"setChain","inputs":[{"name":"chainId","type":"uint256","internalType":"uint256"},{"name":"blockNo","type":"uint256","internalType":"uint256"}],"outputs":[],"stateMutability":"nonpayable"}],"bytecode":{"object":"0x6080604052348015600f57600080fd5b506104558061001f6000396000f3fe608060405234801561001057600080fd5b50600436106100415760003560e01c806387cea3ae14610046578063faf924cf1461005b578063ffbc563814610079575b600080fd5b6100596100543660046102e9565b61008c565b005b610063610156565b6040516100709190610302565b60405180910390f35b6100596100873660046103d4565b61016b565b6040516343e751d760e11b8152600481018290527376dc9aa45aa006a0f63942d8f9f21bd4537972a3906387cea3ae906024016020604051808303816000875af11580156100de573d6000803e3d6000fd5b505050506040513d601f19601f8201168201806040525081019061010291906103f6565b6101535760405162461bcd60e51b815260206004820152601b60248201527f4661696c6564206368656174636f646520696e766f636174696f6e000000000060448201526064015b60405180910390fd5b50565b61015e610250565b61016661023b565b905090565b60405160016208753960e31b0319815260048101839052602481018290527376dc9aa45aa006a0f63942d8f9f21bd4537972a39063ffbc5638906044016020604051808303816000875af11580156101c7573d6000803e3d6000fd5b505050506040513d601f19601f820116820180604052508101906101eb91906103f6565b6102375760405162461bcd60e51b815260206004820152601b60248201527f4661696c6564206368656174636f646520696e766f636174696f6e0000000000604482015260640161014a565b5050565b610243610250565b61024b610250565b919050565b60405180608001604052806102636102a3565b8152600060208083018290526040808401839052805160a08101825283815291820183905281018290526060818101839052608082019290925291015290565b604080516060810190915260008152602081016102be6102ca565b81526020016000905290565b6040518061010001604052806008906020820280368337509192915050565b6000602082840312156102fb57600080fd5b5035919050565b815180516001600160e01b031916825260208082015161022084019291840160005b6008811015610343578251825260209283019290910190600101610324565b505050604001516002811061036857634e487b7160e01b600052602160045260246000fd5b61012083015260208381015161014084015260408085015161016085015260609485015180516001600160a01b0316610180860152918201516001600160e01b0319166101a08501528101516101c0840152928301516101e08301526080909201516102009091015290565b600080604083850312156103e757600080fd5b50508035926020909101359150565b60006020828403121561040857600080fd5b8151801515811461041857600080fd5b939250505056fea264697066735822122065eeae80675ea622307b21a409ba5f64b14fc5f66ec0d7e35ccc92e99539c4f764736f6c634300081c0033","linkReferences":{}},"methodIdentifiers":{"proof()":"faf924cf","setBlock(uint256)":"87cea3ae","setChain(uint256,uint256)":"ffbc5638"},"id":57}